:100000000C9463000C94E0050C94B9050C948B00DF
:100010000C948B000C948B000C948B000C948B0034
:100020000C948B000C948B000C948B000C948B0024
:100030000C948B000C948B000C948B000C948B0014
:100040000C946F050C948B000C943D050C941705D3
:100050000C948B000C948B000C948B000C948B00F4
:100060000C9407060C948B0000000000240027006D
:100070002A0000000000250028002B0000000008D6
:10008000000201000003040700000000000000005F
:10009000010204081020408001020408102001021F
:1000A000040810200000000023002600290004049A
:1000B0000404040404040202020202020303030310
:1000C00003032607400B11241FBECFEFD8E0DEBF8D
:1000D000CDBF12E0A0E0B1E0E4E4FDE102C0059094
:1000E0000D92AE30B107D9F724E0AEE0B2E001C026
:1000F0001D92AE36B207E1F710E0C2E6D0E004C0D0
:100100002197FE010E949D0CC136D107C9F70E94BC
:10011000DF080C94950E0C940000E091AF02F09172
:10012000B002309729F01092AC021092AB02099401
:100130000895CF93DF93AC01E091B102F091B20248
:100140003097F1F09091AE028091AD029817C0F017
:1001500090E0292F30E02617370754F4D901A25F29
:10016000BD4F240F351FE90128812C939F5FF1CFEC
:100170001092AE026093AD02CB01DF91CF91099452
:10018000DF91CF910895AF92BF92CF92DF92EF921D
:10019000FF920F931F93CF93DF936C017B018B0131
:1001A000040F151FEB015E01AE18BF08C017D10781
:1001B00059F06991D601ED91FC910190F081E02D0B
:1001C000C6010995892B79F7C501DF91CF911F9160
:1001D0000F91FF90EF90DF90CF90BF90AF90089578
:1001E000FC01538D448D252F30E0842F90E0821B3D
:1001F000930B541710F0CF96089501970895FC01C2
:10020000918D828D981761F0A28DAE0FBF2FB11D19
:100210005D968C91928D9F5F9F73928F90E0089571
:100220008FEF9FEF0895FC01918D828D981731F02B
:10023000828DE80FF11D858D90E008958FEF9FEF7F
:100240000895FC01918D228D892F90E0805C9F4F55
:10025000821B91098F739927089581EC92E00E9487
:10026000210121E0892B09F420E0822F089580E00C
:1002700090E0892B29F00E942D0181110C9400003F
:100280000895FC01A48DA80FB92FB11DA35ABF4F2B
:100290002C91848D90E001968F739927848FA68985
:1002A000B7892C93A089B1898C91837080648C93D9
:1002B000938D848D981306C00288F389E02D808188
:1002C0008F7D80830895EF92FF920F931F93CF93BA
:1002D000DF93EC0181E0888F9B8D8C8D98131AC081
:1002E000E889F989808185FF15C09FB7F894EE8968
:1002F000FF896083E889F9898081837080648083C5
:100300009FBF81E090E0DF91CF911F910F91FF900F
:10031000EF900895F62E0B8D10E00F5F1F4F0F73B7
:100320001127E02E8C8D8E110CC00FB607FCFACF72
:10033000E889F989808185FFF5CFCE010E944101CE
:10034000F1CFEB8DEC0FFD2FF11DE35AFF4FF08243
:100350009FB7F8940B8FEA89FB8980818062CFCFA9
:10036000CF93DF93EC01888D8823B9F0AA89BB89EC
:10037000E889F9898C9185FD03C0808186FD0DC0D7
:100380000FB607FCF7CF8C9185FFF2CF808185FFF8
:10039000EDCFCE010E944101E9CFDF91CF910895C9
:1003A000833081F028F4813099F08230A9F00895EB
:1003B0008730A9F08830C9F08430B1F48091800092
:1003C0008F7D03C0809180008F7780938000089597
:1003D00084B58F7784BD089584B58F7DFBCF8091E0
:1003E000B0008F778093B00008958091B0008F7D2A
:1003F000F9CF1F93CF93DF93282F30E0F901E45812
:10040000FF4F8491F901E057FF4FD491F901E25574
:10041000FF4FC491CC23A9F0162F81110E94D00167
:10042000EC2FF0E0EE0FFF1FEE58FF4FA591B491B7
:100430008FB7F894EC91111108C0D095DE23DC93AE
:100440008FBFDF91CF911F910895DE2BF8CFCF930F
:10045000DF9390E0FC01E057FF4F249182559F4FBE
:10046000FC0184918823C9F090E0880F991FFC015A
:10047000E859FF4FA591B491FC01EE58FF4FC5918B
:10048000D49161110DC09FB7F8948C91209582236F
:100490008C938881282328839FBFDF91CF91089573
:1004A000623051F49FB7F8943C91822F809583235A
:1004B0008C93E8812E2BEFCF8FB7F894EC912E2BF5
:1004C0002C938FBFEACF2FB7F8946091A30270915D
:1004D000A4028091A5029091A6022FBF08950895CD
:1004E00020915402260F3327331F21323105ECF4BB
:1004F00020917802FC0190E080E0243069F082E0F5
:100500000895A09154022191AC014C5C5D4FA40F61
:10051000B52FB11D2C930196861798F38091540244
:10052000680F6093540280E0089581E0089510926E
:10053000780281E080937A021092790261E082E190
:100540000E94F90161E083E10E94F901E9EBF0E02A
:1005500080818E7F808380818D7F808388E48093FB
:10056000B80085E48093BC0008950895E091AE0240
:100570008091AD02E81730F4F0E0E25FFD4F80813A
:1005800090E008958FEF9FEF08959091AE028091D3
:10059000AD022FEF3FEF981748F4E92FF0E0E25F4C
:1005A000FD4F208130E09F5F9093AE02C901089516
:1005B0008091AD029091AE02891B990B0895CF9363
:1005C000DF93CB01EA01642F0E947002CE01DF911C
:1005D000CF910895CF93DF931F92CDB7DEB7698394
:1005E00061E0CE0101960E94700281E090E00F90E0
:1005F000DF91CF91089560E08EE593E00E94EA02DA
:100600006091B9028EE593E00C94EA0290E080E0FC
:100610000895DC01ED91FD918081ED91FD91908136
:10062000ED91FD916C9163708E2309F064609F23BE
:1006300009F06860E6E2F3E0E60FF11D6595659567
:100640006D936D917D918D919D91099423C01AC0F8
:1006500012C016C010C01EC009C014C013C006C00E
:1006600019C009C00DC007C00DC014C06250704051
:10067000804090400BC0615070408040904006C068
:100680006E5F01C06F5F7F4F8F4F9F4F9E938E9322
:100690007E936E93089580916A0390916B030C94FE
:1006A000090380916C0390916D030C940903FC0184
:1006B00001900020E9F73197AF01481B590BBC01AD
:1006C00081EC92E00C94C3008F929F92AF92BF9204
:1006D0000F931F93CF93DF93CDB7DEB7A1970FB6DC
:1006E000F894DEBF0FBECDBF19A2423008F44AE035
:1006F0008E010F5D1F4F842E912CB12CA12CA501D2
:1007000094010E946C0CE62FB901CA01EA30F4F49E
:10071000E05DD801EE938D01232B242B252B79F757
:1007200090E080E0109719F0CD010E945703A19648
:100730000FB6F894DEBF0FBECDBFDF91CF911F91F2
:100740000F91BF90AF909F908F900895E95CE1CF9B
:10075000CF92DF92EF92FF92CF93DF936C01990FCC
:10076000EE08FF08F7FE1FC06DE281EC92E00E94E8
:100770006301EC0166277727CB016C197D098E098F
:100780009F094AE00E946403C80FD91F87E391E0E4
:100790000E9457038C0F9D1FDF91CF91FF90EF9028
:1007A000DF90CF9008954AE0C701B6010E9464032C
:1007B000EC01ECCFCF93DF93EC018AE391E00E9450
:1007C0005703CE010E94A803CD2BD1F18EE593E013
:1007D0000E94C502C82F8AE491E00E9457036C2F43
:1007E00070E090E080E04AE00E94640387E391E0DB
:1007F0000E945703C230C1F48EE593E00E94C50207
:10080000809300018DE591E00E9457036091000103
:1008100070E090E080E04AE00E94640387E391E0AA
:10082000DF91CF910C945703C13051F485E791E0EB
:100830000E94570387E391E00E945703C093C002D0
:10084000DF91CF9108950F931F93CF93DF93EC0126
:1008500088819981009759F02A813B8126173707B3
:1008600030F081E0DF91CF911F910F9108958B01BE
:100870006F5F7F4F0E94C80D009759F0998388835E
:100880001B830A832C813D81232B59F7FC011082A5
:10089000E8CF80E0E7CFCF93DF93EC0188819981A7
:1008A000009711F00E943F0D198218821D821C8250
:1008B0001B821A82DF91CF910895EF92FF920F93DE
:1008C0001F93CF93DF93EC018617970781F0FB010D
:1008D000008111810115110539F0E480F580B7011F
:1008E0000E94230481110BC0CE010E944B04CE0153
:1008F000DF91CF911F910F91FF90EF900895FD82AE
:10090000EC82B801888199810E948E0EF0CFEF921F
:10091000FF920F931F93CF93DF93EC017B0119821A
:1009200018821B821A821D821C82FB01019000200A
:10093000E9F731978F01061B170BB8010E942304BA
:10094000811109C0CE01DF91CF911F910F91FF90CE
:10095000EF900C944B041D830C83B701888199811F
:10096000DF91CF911F910F91FF90EF900C948E0E1D
:10097000FC0180819181009711F00C943F0D089546
:10098000CF93DF9385ED8093BC00809130029091EE
:100990003102A0913202B09133020796A11DB11D20
:1009A00023E0B695A795979587952A95D1F720913D
:1009B000BC0024FD03C01092780236C04091300282
:1009C000509131026091320270913302452B462BD7
:1009D000472B69F30097A105B10541F025E32A955E
:1009E000F1F700000197A109B109E1CF80912F0231
:1009F00091E090932E028823B9F0C091B800D09175
:100A0000BA008091BC008A7B8093BC0060E082E1E8
:100A10000E94F90160E083E10E94F9010E949702BF
:100A2000D093BA00C093B800DF91CF9108951F9280
:100A30000F920FB60F9211242F933F934F935F9312
:100A40006F937F938F939F93AF93BF93EF93FF9396
:100A500081EC92E00E944101FF91EF91BF91AF9133
:100A60009F918F917F916F915F914F913F912F91C6
:100A70000F900FBE0F901F9018951F920F920FB6F8
:100A80000F9211242F938F939F93EF93FF93E091F5
:100A9000D102F091D2028081E091D702F091D80288
:100AA00082FD1BC090818091DA028F5F8F7320914D
:100AB000DB02821741F0E091DA02F0E0EF53FD4FE4
:100AC000958F8093DA02FF91EF919F918F912F91F3
:100AD0000F900FBE0F901F9018958081F4CF1F923A
:100AE0000F920FB60F9211242F933F938F939F93E2
:100AF000AF93BF938091A3029091A402A091A5020D
:100B0000B091A6023091A20223E0230F2D3758F5B1
:100B10000196A11DB11D2093A2028093A302909380
:100B2000A402A093A502B093A60280919E02909188
:100B30009F02A091A002B091A1020196A11DB11D3A
:100B400080939E0290939F02A093A002B093A10273
:100B5000BF91AF919F918F913F912F910F900FBEB9
:100B60000F901F90189526E8230F0296A11DB11D26
:100B7000D2CF1F920F920FB60F9211242F933F9353
:100B80004F935F936F937F938F939F93AF93BF9395
:100B9000EF93FF93E0910701F09108010995FF9110
:100BA000EF91BF91AF919F918F917F916F915F91E5
:100BB0004F913F912F910F900FBE0F901F9018955E
:100BC0001F920F920FB60F9211242F933F934F93C2
:100BD0005F936F937F938F939F93AF93BF93EF93A5
:100BE000FF93E0910501F09106010995FF91EF91C6
:100BF000BF91AF919F918F917F916F915F914F9135
:100C00003F912F910F900FBE0F901F9018951F923C
:100C10000F920FB60F9211242F933F934F935F9330
:100C20006F937F938F939F93AF93BF93EF93FF93B4
:100C30008091B900887F803609F44AC0F0F5883287
:100C400009F4A7C018F5803109F49BC0B8F48823D3
:100C500009F4F9C0883009F494C0FF91EF91BF9175
:100C6000AF919F918F917F916F915F914F913F9144
:100C70002F910F900FBE0F901F901895883109F497
:100C800088C0803251F78093770214C0803409F411
:100C90009DC040F48033B9F38833F9F6809377022E
:100CA00085ECB0C0803509F485C0883509F496C05C
:100CB000883499F60E94C004D0CF883909F48CC0DA
:100CC00038F5883729F050F4883611F0803729F646
:100CD00083E0809378021092760257C0883809F436
:100CE0007BC0803919F0803809F0B7CF8091760247
:100CF000803208F071C0E091760281E08E0F80931F
:100D000076028091BB00F0E0EA5AFD4F80833DC03F
:100D1000803B39F0E0F4803A09F479C0883A09F070
:100D20009CCF84E080937802109255021092540276
:100D3000E091A902F091AA020995809154028111D3
:100D40000FC081E0809354021092340209C0803CAD
:100D500009F4A6CF883C09F4A3CF883B09F07DCFE6
:100D6000E091550281E08E0F80935502F0E0EC5C3B
:100D7000FD4F80818093BB00909155028091540279
:100D800029C080919D028093BB0085EC8093BC00BC
:100D900064CF90919C0280919B02981758F5E09146
:100DA0009C0281E08E0F80939C02F0E0E558FD4F9D
:100DB0008081E9CFE0919C0281E08E0F80939C02BC
:100DC0008091BB00F0E0E558FD4F808390919C023C
:100DD00080919B029817C8F285E8D8CFE0919C02D9
:100DE00081E08E0F80939C028091BB00F0E0E5587B
:100DF000FD4F808380917A0281115CCF81E08093E6
:100E0000790284EA8093BC001092780226CF85ECA8
:100E10008093BC001092780280917602803230F488
:100E2000E0917602F0E0EA5AFD4F1082609176027E
:100E300070E0E091A702F091A80286E592E00995A2
:100E4000109276020ACF1092770234CFCF93DF93BD
:100E50001092C4021092C30288EE93E0A0E0B0E0CA
:100E60008093C5029093C602A093C702B093C802B4
:100E700027E131E03093C2022093C10225EC30E03B
:100E80003093CE022093CD0224EC30E03093D00298
:100E90002093CF0220EC30E03093D2022093D10295
:100EA00021EC30E03093D4022093D30222EC30E0E6
:100EB0003093D6022093D50226EC30E03093D8024E
:100EC0002093D7021092DA021092DB021092DC0219
:100ED0001092DD021092610310926003809362030E
:100EE00090936303A0936403B093650389E291E058
:100EF00090935F0380935E0362E082E00E9427028A
:100F000062E083E00E942702E0EBF0E0E491F0E091
:100F1000EE0FFF1FEC55FF4FA591B491B0935F0406
:100F2000A0935E04E2E9F0E0449140936204E1EBB7
:100F3000F0E0E491F0E0EE0FFF1FEC55FF4FC5919C
:100F4000D491D0936104C0936004E3E9F0E0E491AC
:100F5000E093630410926504109266041092670493
:100F6000109268042BE33FE1C9010197F1F79C91CE
:100F7000842F892391E009F490E08881E82309F027
:100F800092602EE534E09093640430936B032093D9
:100F90006A038BE493E090930601809305018091AE
:100FA00069008C7F816080936900E89A81E080937A
:100FB000690430936D0320936C0381E593E0909373
:100FC00008018093070180916900837F846080938A
:100FD0006900E99A82E08093690462E971E086E839
:100FE00093E00E9487046AEC71E08CE893E00E9431
:100FF00087046CE771E082E993E00E94870461ED69
:1010000071E088E993E00E94870469ED71E08EE960
:1010100093E00E94870461E871E084EA93E00E9413
:10102000870467ED71E08AEA93E00E94870464EC2C
:1010300071E080EB93E00E94870462ED71E086EB43
:1010400093E00E9487046CEA71E08CEB93E00E94CD
:10105000870461E971E082EC93E00E94870466E80E
:1010600071E088EC93E00E94870462EA71E08EEC04
:1010700093E00E94870468ED71E084ED93E00E94A4
:10108000870461EA71E08AED93E00E9487046BE8CF
:1010900071E080EE93E00E94870460E971E086EEE3
:1010A00093E00E9487046DE771E08CEE93E00E946C
:1010B00087046BEC71E082EF93E00E94870463EA9F
:1010C00071E088EF93E00E94870466E971E08EEF9B
:1010D00093E00E94870468EB71E084E094E00E9452
:1010E00087046BE971E08AE094E00E94870465E977
:1010F00071E080E194E00E9487046AE971E086E192
:1011000094E00E94870460ED71E08CE194E00E941D
:1011100087046FE971E082E294E00E94870465EA47
:1011200071E088E294E00E9487046BEA71E08EE24D
:1011300094E00E94870461EB71E084E394E00E94F4
:10114000870467EB71E08AE394E00E9487046DEB0B
:1011500071E080E494E00E94870463EC71E086E42F
:1011600094E00E94870469EC71E08CE494E00E94B2
:1011700087046FEC71E082E594E00E94870465EDDE
:1011800071E088E594E00E9487046BED71E08AE7E6
:1011900093E00E94870461EE71E080E893E00E9492
:1011A000870469E371E084E793E00E94870469E3C0
:1011B00071E08EE693E0DF91CF910C9487047894F0
:1011C00084B5826084BD84B5816084BD85B582604C
:1011D00085BD85B5816085BD80916E0081608093FD
:1011E0006E00109281008091810082608093810066
:1011F0008091810081608093810080918000816076
:10120000809380008091B10084608093B1008091D0
:10121000B00081608093B00080917A0084608093F8
:101220007A0080917A00826080937A0080917A00BF
:10123000816080937A0080917A00806880937A0040
:101240001092C1001092AE021092AD021092AC0248
:101250001092AB020E9497028DE890E09093AA0250
:101260008093A90289E990E09093A8028093A70255
:1012700080E18093BA0081E18093BA008BEF92E025
:101280009093B0028093AF028AED93E09093B20204
:101290008093B102E091D102F091D20282E080838A
:1012A000E091CD02F091CE021082E091CF02F09158
:1012B000D0028FEC80831092D902E091D502F09198
:1012C000D60286E08083E091D302F091D40280813F
:1012D00080618083E091D302F091D40280818860A4
:1012E0008083E091D302F091D40280818068808372
:1012F000E091D302F091D40280818F7D808387EECC
:1013000091E00E94570388E090E00E94A80361E00A
:1013100087E00E94270260E085E00E94270280E4C7
:1013200080937C0080917A00806480937A00809121
:101330007A0086FDFCCF8091780060917900762F4D
:10134000682F072E000C880B990B6115710581051C
:10135000910511F00E94FA0B0E94AB0B22E030E0E5
:1013600040E050E00E94030C26E0269FA001279F4A
:10137000500D1124BA0166587C4F84E793E00E9417
:101380005D0485EF91E00E945703409178035091EE
:101390007903609174037091750381EC92E00E946F
:1013A000C30087E391E00E945703C1E8D0E005E95C
:1013B00010E033EBE32E30E0F32E9924939496E083
:1013C000892E20E0C22E20E0D22E8091C0028823F8
:1013D00009F479C00E9463024090B5025090B602B1
:1013E0006090B7027090B802641575058605970580
:1013F000D0F18091B402882309F47FC060E087E0D7
:101400000E94F9011092B402A0900301B09004016F
:10141000809172039091730301978A159B0509F0DF
:1014200065C0809178039091790301972091010123
:10143000309102018217930709F051C00E946302A4
:101440006854744F8F4F9F4F6093B5027093B602EC
:101450008093B7029093B8028FEFA81AB80AB0929F
:101460000401A0920301FE018491F801B490F701F8
:10147000A490AA2009F4D3C081110E94D001EA2DC2
:10148000F0E0EE0FFF1FEC55FF4FA591B4918C914A
:10149000B82291E080E009F490E0A92EB82EFA2D50
:1014A000F1707F2E8091BF02F81709F4BBC00E9433
:1014B00063026093BB027093BC028093BD02909361
:1014C000BE027092BF02C114D10409F47ECF0E9403
:1014D0002D01882309F471CF0E9400006ECF0E9475
:1014E000630268517C4F8F4F9F4FAECF0E946302C3
:1014F00068537F4F8F4F9F4FA7CF8091720390917A
:101500007303009771F0E0916E03F0916F032081F7
:10151000222339F020910301309104012817390763
:10152000D1F5209178033091790380910101909158
:101530000201A901415051094817590709F063C038
:101540001092020110920101109204011092030105
:1015500080910101909102018217930738F4E09184
:101560007403F0917503309709F053C01092B302E1
:10157000E3EBF2E08081082E000C990B8156910973
:10158000889EB001899E700D11246A577C4F8EE6AB
:1015900093E00E945D0480910301909104012091E9
:1015A0007203309173038217930730F4E0916E0356
:1015B000F0916F03309781F51092B302E3EBF2E004
:1015C000B0800E946302AB01BC01EEE280E991E0D1
:1015D000BE1611F080E293E0092E000CAA0BBB0BA3
:1015E000840F951FA61FB71F8093B5029093B60274
:1015F000A093B702B093B8029092B40261E087E082
:101600000E94F90130CF019690930201809301016D
:101610009BCFE80FF91FAECFE80FF91FD1CFB12C48
:10162000A12C3DCF0E946302AB01BC018091BB02A3
:101630009091BC02A091BD02B091BE02C296A11DC4
:10164000B11D84179507A607B70708F03CCF809116
:10165000BA02781609F437CF7092BA02AA94AB286E
:1016600009F031CF8091B9028F5F8093B90284E095
:1016700092E00E94570387E391E00E94570323CF33
:10168000CF93DF938EE693E00E94B80484E793E063
:101690000E94B80480E893E00E94B8048AE793E0CF
:1016A0000E94B804CEE5D4E02697CE010E94B8048B
:1016B00083E0C638D807C1F7DF91CF9108958F92A4
:1016C0009F92AF92BF92CF92DF92EF92FF92CF9311
:1016D000DF93EC01688179818A819B8161157105B5
:1016E0008105910521F464E279ED8BE597E02DE128
:1016F00033EF41E050E00E94030C49015A019B0185
:10170000AC01A7EAB1E40E94220C6B017C01ACEEB3
:10171000B4EFA50194010E94300CC60ED71EE81E3E
:10172000F91EF7FE06C081E0C81AD108E10880E87A
:10173000F80AC882D982EA82FB82C701B6019F7784
:10174000DF91CF91FF90EF90DF90CF90BF90AF905F
:101750009F908F9008958F929F92AF92BF92CF9259
:10176000DF92EF92FF926091090170910A018091DE
:101770000B0190910C01611571058105910521F412
:1017800064E279ED8BE597E02DE133EF41E050E045
:101790000E94030C49015A019B01AC01A7EAB1E484
:1017A0000E94220C6B017C01ACEEB4EFA501940108
:1017B0000E94300CC60ED71EE81EF91EF7FE06C0AA
:1017C00081E0C81AD108E10880E8F80AC09209014E
:1017D000D0920A01E0920B01F0920C01C701B60110
:1017E0009F77FF90EF90DF90CF90BF90AF909F904A
:1017F0008F9008956093090170930A0180930B0103
:1018000090930C010895052E97FB1EF400940E94FE
:101810001A0C57FD07D00E946C0C07FC03D04EF445
:101820000C941A0C50954095309521953F4F4F4F91
:101830005F4F089590958095709561957F4F8F4F7C
:101840009F4F08950E948E0CA59F900DB49F900D00
:10185000A49F800D911D11240895B7FF0C94220CB4
:101860000E94220C821B930B08952F923F924F925D
:101870005F926F927F928F929F92AF92BF92CF9220
:10188000DF92EF92FF920F931F93CF93DF93CDB729
:10189000DEB7CA1BDB0B0FB6F894DEBF0FBECDBFA1
:1018A00009942A88398848885F846E847D848C8472
:1018B0009B84AA84B984C884DF80EE80FD800C817B
:1018C0001B81AA81B981CE0FD11D0FB6F894DEBF5E
:1018D0000FBECDBFED010895A1E21A2EAA1BBB1BBE
:1018E000FD010DC0AA1FBB1FEE1FFF1FA217B307EC
:1018F000E407F50720F0A21BB30BE40BF50B661F02
:10190000771F881F991F1A9469F7609570958095C5
:1019100090959B01AC01BD01CF010895A29FB0013C
:10192000B39FC001A39F700D811D1124911DB29F13
:10193000700D811D1124911D0895EE0FFF1F05905C
:10194000F491E02D09940F931F93CF93DF9382308E
:10195000910510F482E090E0E0916C04F0916D0448
:1019600030E020E0B0E0A0E0309799F42115310597
:1019700009F44AC0281B390B24303105D8F58A8177
:101980009B816115710589F1FB0193838283FE01BF
:1019900011C0408151810281138148175907E0F03D
:1019A0004817590799F4109761F012960C93129703
:1019B00013961C933296CF01DF91CF911F910F9117
:1019C000089500936C0410936D04F4CF2115310534
:1019D00051F04217530738F0A901DB019A01BD010C
:1019E000DF01F801C1CFEF01F9CF90936D0480932F
:1019F0006C04CDCFFE01E20FF31F8193919322502F
:101A0000310939832883D7CF20916A0430916B0440
:101A1000232B41F420910F013091100130936B047E
:101A200020936A0420910D0130910E01211531059A
:101A300041F42DB73EB74091110150911201241B82
:101A4000350BE0916A04F0916B04E217F307A0F400
:101A50002E1B3F0B2817390778F0AC014E5F5F4F04
:101A60002417350748F04E0F5F1F50936B044093C7
:101A70006A04819391939FCFF0E0E0E09CCFCF93F5
:101A8000DF930097E9F0FC01329713821282A09154
:101A90006C04B0916D04ED0130E020E01097A1F4EA
:101AA00020813181820F931F20916A0430916B0451
:101AB0002817390709F061C0F0936B04E0936A04BA
:101AC000DF91CF910895EA01CE17DF07E8F54A814B
:101AD0005B819E0141155105B1F7E901FB83EA8362
:101AE00049915991C40FD51FEC17FD0761F480810E
:101AF00091810296840F951FE901998388838281E1
:101B000093819B838A83F0E0E0E012968D919C9113
:101B100013970097B9F52D913C911197CD0102963D
:101B2000820F931F20916A0430916B0428173907A4
:101B300039F6309751F510926D0410926C04B09301
:101B40006B04A0936A04BCCFD383C28340815181CC
:101B5000840F951FC817D90761F44E5F5F4F8881C6
:101B60009981480F591F518340838A819B819383B8
:101B700082832115310509F0B0CFF0936D04E09315
:101B80006C049ECFFD01DC01C0CF13821282D7CF3F
:101B9000B0E0A0E0EEECFDE00C94370C8C01009777
:101BA00051F4CB010E94A30C8C01C801CDB7DEB764
:101BB000E0E10C94530CFC01E60FF71F9C0122504E
:101BC0003109E217F30708F49DC0D901CD91DC91EA
:101BD0001197C617D70798F0C530D10530F3CE015D
:101BE00004978617970708F3C61BD70B2297C19354
:101BF000D1936D937C93CF010E943F0DD6CF5B01B3
:101C0000AC1ABD0A4C018C0E9D1EA0916C04B091C3
:101C10006D04512C412CF12CE12C109731F5809161
:101C20006A0490916B048815990509F05CC046160A
:101C3000570608F058C080910D0190910E01009751
:101C400041F48DB79EB74091110150911201841B50
:101C5000950BE817F90708F055C0F0936B04E09373
:101C60006A04F90171836083A0CF8D919C911197D3
:101C700012966C90129713967C901397A815B9053D
:101C800059F56C0142E0C40ED11CCA14DB0420F1EA
:101C9000AC014A195B09DA011296159780F062824D
:101CA000738251834083D9016D937C93E114F104D5
:101CB00071F0D7011396FC93EE93129776CF22968C
:101CC0008C0F9D1FF90191838083F301EFCFF09377
:101CD0006D04E0936C0469CF4816590608F42C0192
:101CE0007D01D3019ACFCB010E94A30C7C01009708
:101CF00049F0AE01B8010E94850EC8010E943F0D57
:101D0000870153CF10E000E050CFFB01DC0102C09F
:101D100001900D9241505040D8F70895FB01DC012D
:101D200001900D920020E1F7089510E0C2E6D0E0A6
:101D300004C0FE010E949D0C2196C336D107C9F74D
:041D4000F894FFCF45
:101D440001FFFFFFFF6F026F020100000000006E41
:101D5400048000000000006301C300F000B0012112
:101D640001FF00130100000000EA02DF020603B5D0
:101D740002D802C502B6020D0A005265636569768F
:101D8400656420646174613A200052656365697614
:101D9400656420636F6D6D616E643A2000536574F1
:101DA40074696E6720646966666963756C7479200A
:101DB400746F3A200041726D696E67002D2E2D2ECE
:101DC400002E2E2D2E002E2D2E2E002E2D2D2E00EB
:101DD4002D2D2E2D002D2E2E2D002D2E2D2D002DB2
:101DE4002D2D2D2D002E2D2D2D2D002E2E2D2D2D76
:101DF400002E2E2E2D2D002E2E2E2E2D002E2E2E8C
:101E04002E2E002D2E2E2E2E002D2D2E2E2E002D7C
:101E14002D2D2E2E002D2D2D2D2E00616C70686120
:101E240000627261766F00493243204164647265D6
:101E340073733A200043757272656E7420776F7203
:0E1E4400643A2000537472696B696E67000087
:00000001FF
