:020000040000FA
:100000000C9463000C94AE040C9487040C948B0045
:100010000C948B000C948B000C948B000C948B0034
:100020000C948B000C948B000C948B000C948B0024
:100030000C948B000C948B000C948B000C948B0014
:100040000C943D040C948B000C940B040C94E5036D
:100050000C948B000C948B000C948B000C948B00F4
:100060000C94D5040C948B000000000024002700A1
:100070002A0000000000250028002B0000000008D6
:10008000000201000003040700000000000000005F
:10009000010204081020408001020408102001021F
:1000A000040810200000000023002600290004049A
:1000B0000404040404040202020202020303030310
:1000C0000303F005650911241FBECFEFD8E0DEBFA2
:1000D000CDBF11E0A0E0B1E0E6E8F9E102C0059093
:1000E0000D92A03BB107D9F723E0A0EBB1E001C02E
:1000F0001D92AB3CB207E1F710E0C2E6D0E004C0CD
:100100002197FE010E94BE0AC136D107C9F70E949D
:1001100091070C94B60C0C940000AF92BF92CF9252
:10012000DF92EF92FF920F931F93CF93DF936C01B7
:100130007B018B01040F151FEB015E01AE18BF0898
:10014000C017D10759F06991D601ED91FC9101904A
:10015000F081E02DC6010995892B79F7C501DF9162
:10016000CF911F910F91FF90EF90DF90CF90BF90B4
:10017000AF900895FC01538D448D252F30E0842FDE
:1001800090E0821B930B541710F0CF9608950197BF
:100190000895FC01918D828D981761F0A28DAE0FAC
:1001A000BF2FB11D5D968C91928D9F5F9F73928F33
:1001B00090E008958FEF9FEF0895FC01918D828D5F
:1001C000981731F0828DE80FF11D858D90E008952C
:1001D0008FEF9FEF0895FC01918D228D892F90E084
:1001E000805C9F4F821B91098F739927089580E34C
:1001F00092E00E94EB0021E0892B09F420E0822F9D
:10020000089580E090E0892B29F00E94F700811189
:100210000C9400000895FC01A48DA80FB92FB11D06
:10022000A35ABF4F2C91848D90E001968F7399272C
:10023000848FA689B7892C93A089B1898C9183700A
:1002400080648C93938D848D981306C00288F38903
:10025000E02D80818F7D80830895EF92FF920F9330
:100260001F93CF93DF93EC0181E0888F9B8D8C8D62
:1002700098131AC0E889F989808185FF15C09FB756
:10028000F894EE89FF896083E889F9898081837019
:10029000806480839FBF81E090E0DF91CF911F91C8
:1002A0000F91FF90EF900895F62E0B8D10E00F5FE9
:1002B0001F4F0F731127E02E8C8D8E110CC00FB6BF
:1002C00007FCFACFE889F989808185FFF5CFCE0157
:1002D0000E940B01F1CFEB8DEC0FFD2FF11DE35AC6
:1002E000FF4FF0829FB7F8940B8FEA89FB898081DA
:1002F0008062CFCFCF93DF93EC01888D8823B9F054
:10030000AA89BB89E889F9898C9185FD03C0808120
:1003100086FD0DC00FB607FCF7CF8C9185FFF2CF9D
:10032000808185FFEDCFCE010E940B01E9CFDF91E7
:10033000CF91089590E0FC01E458FF4F2491FC0117
:10034000E057FF4F3491FC01E255FF4FE491EE235B
:10035000C9F0222339F0233001F1A8F4213019F13A
:10036000223029F1F0E0EE0FFF1FEE58FF4FA5916C
:10037000B4918FB7F894EC91611126C030953E236B
:100380003C938FBF08952730A9F02830C9F024305E
:1003900049F7809180008F7D03C0809180008F7726
:1003A00080938000DFCF84B58F7784BDDBCF84B5A9
:1003B0008F7DFBCF8091B0008F778093B000D2CF3C
:1003C0008091B0008F7DF9CF3E2BDACFCF93DF93B2
:1003D00090E0FC01E057FF4F249182559F4FFC01B4
:1003E00084918823D1F090E0880F991FFC01E8598F
:1003F000FF4FA591B491FC01EE58FF4FC591D491E8
:10040000623071F49FB7F8943C91822F80958323DA
:100410008C93E8812E2B28839FBFDF91CF91089585
:100420008FB7F894EC912E2B2C938FBFF6CF2FB76C
:10043000F894609126027091270280912802909191
:1004400029022FBF089508952091D701260F332741
:10045000331F21323105ECF42091FB01FC0190E0C7
:1004600080E0243069F082E00895A091D7012191C5
:10047000AC0149545E4FA40FB52FB11D2C930196CA
:10048000861798F38091D701680F6093D70180E0B9
:10049000089581E0089508958FEF9FEF08958FEFFD
:1004A0009FEF08958091B00190E091958195910919
:1004B0000895CF93DF93CB01EA01642F0E942402B9
:1004C000CE01DF91CF910895CF93DF931F92CDB7E7
:1004D000DEB7698361E0CE0101960E94240281E0CB
:1004E00090E00F90DF91CF91089590E080E0089523
:1004F000DC01ED91FD918081ED91FD919081ED9177
:10050000FD916C9163708E2309F064609F2309F064
:100510006860E5E9F2E0E60FF11D659565956D937C
:100520006D917D918D919D91099423C01AC012C047
:1005300016C010C01EC009C014C013C006C019C028
:1005400009C00DC007C00DC014C06250704080408B
:1005500090400BC0615070408040904006C06E5F7C
:1005600001C06F5F7F4F8F4F9F4F9E938E937E93FF
:100570006E9308958091CD029091CE020C947802F2
:100580008091CF029091D0020C947802FC010190EE
:100590000020E9F73197AF01481B590BBC0180E3FC
:1005A00092E00C948D000F931F93CF93DF93EC0197
:1005B00088819981009759F02A813B812617370756
:1005C00030F081E0DF91CF911F910F9108958B0161
:1005D0006F5F7F4F0E94E90B009759F099838883E2
:1005E0001B830A832C813D81232B59F7FC01108248
:1005F000E8CF80E0E7CFCF93DF93EC01888199814A
:10060000009711F00E94600B198218821D821C82D3
:100610001B821A82DF91CF910895EF92FF920F9380
:100620001F93CF93DF93EC018617970781F0FB01AF
:10063000008111810115110539F0E480F580B701C1
:100640000E94D30281110BC0CE010E94FB02CE0199
:10065000DF91CF911F910F91FF90EF900895FD8250
:10066000EC82B801888199810E94AF0CF0CFEF92A3
:10067000FF920F931F93CF93DF93EC017B011982BD
:1006800018821B821A821D821C82FB0101900020AD
:10069000E9F731978F01061B170BB8010E94D302AF
:1006A000811109C0CE01DF91CF911F910F91FF9071
:1006B000EF900C94FB021D830C83B7018881998114
:1006C000DF91CF911F910F91FF90EF900C94AF0CA1
:1006D000FC0180819181009711F00C94600B0895CA
:1006E0001F93CF93DF9385ED8093BC008091B3017E
:1006F0009091B401A091B501B091B6010796A11DEA
:10070000B11D23E0B695A795979587952A95D1F7C2
:100710002091BC0024FD03C01092FB0152C0409107
:10072000B3015091B4016091B5017091B601452BB0
:10073000462B472B69F30097A105B10541F025E34E
:100740002A95F1F700000197A109B109E1CF809145
:10075000B201C1E0C093B101882399F1D091B800F2
:100760001091BA008091BC008A7B8093BC0060E04D
:1007700082E10E949A0160E083E10E949A01109256
:10078000FB01C093FD011092FC0161E082E10E9437
:100790009A0161E083E10E949A018091B9008E7F05
:1007A0008093B9008091B9008D7F8093B90088E46F
:1007B0008093B80085E48093BC001093BA00D09376
:1007C000B800DF91CF911F9108951F920F920FB63D
:1007D0000F9211242F933F934F935F936F937F93C7
:1007E0008F939F93AF93BF93EF93FF9380E392E038
:1007F0000E940B01FF91EF91BF91AF919F918F915B
:100800007F916F915F914F913F912F910F900FBE0C
:100810000F901F9018951F920F920FB60F921124F0
:100820002F938F939F93EF93FF93E0914002F0916A
:1008300041028081E0914602F091470282FD1BC097
:100840009081809149028F5F8F7320914A028217B5
:1008500041F0E0914902F0E0E05DFD4F958F80931B
:100860004902FF91EF919F918F912F910F900FBEB1
:100870000F901F9018958081F4CF1F920F920FB6A2
:100880000F9211242F933F938F939F93AF93BF9316
:100890008091260290912702A0912802B09129020E
:1008A0003091250223E0230F2D3758F50196A11D25
:1008B000B11D209325028093260290932702A093D6
:1008C0002802B09329028091210290912202A091E6
:1008D0002302B09124020196A11DB11D8093210233
:1008E00090932202A0932302B0932402BF91AF9170
:1008F0009F918F913F912F910F900FBE0F901F905E
:10090000189526E8230F0296A11DB11DD2CF1F9284
:100910000F920FB60F9211242F933F934F935F9333
:100920006F937F938F939F93AF93BF93EF93FF93B7
:10093000E0910601F09107010995FF91EF91BF91B8
:10094000AF919F918F917F916F915F914F913F9167
:100950002F910F900FBE0F901F9018951F920F921E
:100960000FB60F9211242F933F934F935F936F9382
:100970007F938F939F93AF93BF93EF93FF93E091F8
:100980000401F09105010995FF91EF91BF91AF919D
:100990009F918F917F916F915F914F913F912F9197
:1009A0000F900FBE0F901F9018951F920F920FB6C9
:1009B0000F9211242F933F934F935F936F937F93E5
:1009C0008F939F93AF93BF93EF93FF938091B90061
:1009D000887F803609F44AC0F0F5883209F4A5C052
:1009E00018F5803109F499C0B8F4882309F4F5C0EA
:1009F000883009F492C0FF91EF91BF91AF919F9120
:100A00008F917F916F915F914F913F912F910F90B7
:100A10000FBE0F901F901895883109F486C0803260
:100A200051F78093FA0114C0803409F49BC040F45C
:100A30008033B9F38833F9F68093FA0185ECAEC0C0
:100A4000803509F483C0883509F494C0883499F658
:100A50000E947003D0CF883909F48AC038F58837EE
:100A600029F050F4883611F0803729F683E080931E
:100A7000FB011092F90155C0883809F479C080391A
:100A800019F0803809F0B7CF8091F901803208F071
:100A90006FC0E091F90181E08E0F8093F9018091A0
:100AA000BB00F0E0E752FE4F80833BC0803B39F053
:100AB000D0F4803A09F477C0883A09F09CCF84E0FA
:100AC0008093FB011092D8011092D701F0E0E0E092
:100AD00009958091D70181110FC081E08093D701E2
:100AE0001092B70109C0803C09F4A8CF883C09F4F2
:100AF000A5CF883B09F07FCFE091D80181E08E0F30
:100B00008093D801F0E0E954FE4F80818093BB00D0
:100B10009091D8018091D70129C0809120028093C3
:100B2000BB0085EC8093BC0066CF90911F02809142
:100B30001E02981758F5E0911F0281E08E0F8093F6
:100B40001F02F0E0E250FE4F8081E9CFE0911F02EA
:100B500081E08E0F80931F028091BB00F0E0E25095
:100B6000FE4F808390911F0280911E029817C8F259
:100B700085E8D8CFE0911F0281E08E0F80931F029D
:100B80008091BB00F0E0E250FE4F80838091FD0138
:100B900081115ECF81E08093FC0184EA8093BC00E8
:100BA0001092FB0128CF85EC8093BC001092FB01D2
:100BB0008091F901803230F4E091F901F0E0E752E0
:100BC000FE4F10826091F90170E089ED91E0F0E054
:100BD000E0E009951092F9010ECF1092FA0138CF9A
:100BE000CF93DF93109233021092320288EE93E09B
:100BF000A0E0B0E08093340290933502A0933602D7
:100C0000B093370286E191E09093310280933002F5
:100C100085EC90E090933D0280933C0284EC90E060
:100C200090933F0280933E0280EC90E090934102CB
:100C30008093400281EC90E09093430280934202C3
:100C400082EC90E0909345028093440286EC90E021
:100C500090934702809346021092490210924A02F2
:100C600010924B0210924C0262E082E00E94E60178
:100C700062E083E00E94E601E0EBF0E0E491F0E066
:100C8000EE0FFF1FEC55FF4FA591B491B093BC033D
:100C9000A093BB03E2E9F0E044914093BF03E1EB92
:100CA000F0E0E491F0E0EE0FFF1FEC55FF4FC5912F
:100CB000D491D093BE03C093BD03E3E9F0E0E49187
:100CC000E093C0031092C2031092C3031092C403B6
:100CD0001092C5032BE33FE1C9010197F1F79C9105
:100CE000842F892391E009F490E08881E82309F0BA
:100CF00092602BEB33E09093C1033093CE022093AC
:100D0000CD028AEB92E090930501809304018091DB
:100D100069008C7F816080936900E89A81E080930C
:100D2000C6033093D0022093CF0280EC92E09093E0
:100D300007018093060180916900837F846080931E
:100D40006900E99A82E08093C6036AE371E083EE6A
:100D500092E00E94370362E771E089EE92E00E9420
:100D6000370364E271E08FEE92E00E94370369E797
:100D700071E085EF92E00E94370361E871E08BEF4C
:100D800092E00E94370369E271E081E093E00E9403
:100D900037036FE771E087E093E00E9437036CE66A
:100DA00071E08DE093E00E9437036AE771E083E130
:100DB00093E00E94370364E571E089E193E00E94CB
:100DC000370369E371E08FE193E00E9437036EE23D
:100DD00071E085E293E00E9437036AE471E08BE200
:100DE00093E00E94370360E871E081E393E00E94A2
:100DF000370369E471E087E393E00E94370363E31C
:100E000071E08DE393E00E94370368E371E083E4CF
:100E100093E00E94370365E271E089E493E00E9469
:100E2000370363E771E08FE493E00E9437036BE4DC
:100E300071E085E593E00E9437036EE371E08BE596
:100E400093E00E94370360E671E081E693E00E9440
:100E5000370363E471E087E693E00E9437036DE3B4
:100E600071E08DE693E00E94370362E471E083E76E
:100E700093E00E94370368E771E089E793E00E94FE
:100E8000370367E471E08FE793E00E9437036DE476
:100E900071E085E893E00E94370363E571E08BE839
:100EA00093E00E94370369E571E081E993E00E94D5
:100EB00037036FE571E087E993E00E94370365E649
:100EC00071E08DE993E00E9437036BE671E083EAFD
:100ED00093E00E94370361E771E089EA93E00E94A2
:100EE000370367E771E08FEA93E00E9437036DE70D
:100EF00071E085EB93E00E94370363E871E08DEDCC
:100F000092E00E94370360EA71E087ED92E00E9470
:100F1000370360EA71E081ED92E0DF91CF910C94AC
:100F20003703CF93DF93CDB7DEB7A1970FB6F89411
:100F3000DEBF0FBECDBF789484B5826084BD84B51A
:100F4000816084BD85B5826085BD85B5816085BDC4
:100F500080916E00816080936E001092810080917C
:100F60008100826080938100809181008160809304
:100F70008100809180008160809380008091B10029
:100F800084608093B1008091B00081608093B00054
:100F900080917A00846080937A0080917A008260E8
:100FA00080937A0080917A00816080937A008091AA
:100FB0007A00806880937A001092C100E09140022C
:100FC000F091410282E08083E0913C02F0913D0289
:100FD0001082E0913E02F0913F028FEC80831092EC
:100FE0004802E0914402F091450286E08083E0915E
:100FF0004202F0914302808180618083E09142024D
:10100000F0914302808188608083E0914202F091F8
:101010004302808180688083E0914202F091430224
:1010200080818F7D808380E991E00E94C60219A2B1
:1010300088E388A3CE0180960E94C6028EE991E0E3
:101040000E94C60261E08DE00E94E60180E4809388
:101050007C0080917A00806480937A0080917A008D
:1010600086FDFCCF8091780060917900762F682F03
:10107000072E000C880B990B6115710581059105F0
:1010800011F00E941B0A0E94CC096DED72E087ED01
:1010900092E00E940D0381EA91E00E94C602409115
:1010A000DB025091DC026091D7027091D80280E39C
:1010B00092E00E948D008EE991E00E94C60286E0D7
:1010C000F82E00E010E0EE24E3940E9417028090D6
:1010D0002C0290902D02A0902E02B0902F02681545
:1010E00079058A059B05C0F180912B02882309F4BC
:1010F0004DC060E08DE00E949A0110922B02C090DA
:101100000201D09003018091D5029091D6020197FF
:101110008C159D05A1F58091DB029091DC02019771
:1011200020910001309101018217930709F50E9477
:1011300017026854744F8F4F9F4F60932C02709327
:101140002D0280932E0290932F022FEFC21AD20A03
:10115000D0920301C09202010115110509F4B5CF27
:101160000E94F700882309F4B0CF0E940000ADCFA1
:101170000E94170268517C4F8F4F9F4FDECF0E9415
:10118000170268537F4F8F4F9F4FD7CF8091D50263
:101190009091D602009771F0E091D102F091D202C5
:1011A0002081222339F02091020130910301281778
:1011B0003907D1F52091DB023091DC0280910001EA
:1011C00090910101A901415051094817590709F0AF
:1011D00054C010920101109200011092030110926C
:1011E000020180910001909101018217930738F468
:1011F000E091D702F091D802309709F044C01092E4
:101200002A02EAE2F2E08081082E000C990B815656
:101210009109F89EB001F99E700D11246D517D4F1A
:1012200081ED92E00E940D038091020190910301F3
:101230002091D5023091D6028217930730F4E091C5
:10124000D102F091D202309709F510922A02EAE217
:10125000F2E0D0808EE2D81235C08CE891E00E9496
:10126000C6028EE991E00E94C6020E9417022EE299
:10127000D2120FC020E931E00EC001969093010117
:1012800080930001AACFE80FF91FBDCFE80FF91F27
:10129000E0CF20E233E04901330FAA08BB08680D14
:1012A000791D8A1D9B1D60932C0270932D028093E3
:1012B0002E0290932F02E0922B0261E08DE00E94BB
:1012C0009A014ACF87E891E0CACFCF93DF9381EDAF
:1012D00092E00E94680387ED92E00E9468038DED22
:1012E00092E00E946803CBEBD3E02697CE010E94E8
:1012F000680382E0C33ED807C1F7DF91CF9108951C
:101300008F929F92AF92BF92CF92DF92EF92FF9215
:10131000CF93DF93EC01688179818A819B8161158C
:1013200071058105910521F464E279ED8BE597E083
:101330002DE133EF41E050E00E94240A49015A01B7
:101340009B01AC01A7EAB1E40E94430A6B017C0156
:10135000ACEEB4EFA50194010E94510AC60ED71E4F
:10136000E81EF91EF7FE06C081E0C81AD108E108A0
:1013700080E8F80AC882D982EA82FB82C701B601F6
:101380009F77DF91CF91FF90EF90DF90CF90BF904C
:10139000AF909F908F9008958F929F92AF92BF923F
:1013A000CF92DF92EF92FF92609108017091090154
:1013B00080910A0190910B016115710581059105DC
:1013C00021F464E279ED8BE597E02DE133EF41E024
:1013D00050E00E94240A49015A019B01AC01A7EA8E
:1013E000B1E40E94430A6B017C01ACEEB4EFA501AD
:1013F00094010E94510AC60ED71EE81EF91EF7FE80
:1014000006C081E0C81AD108E10880E8F80AC09255
:101410000801D0920901E0920A01F0920B01C70184
:10142000B6019F77FF90EF90DF90CF90BF90AF9085
:101430009F908F90089560930801709309018093A5
:101440000A0190930B010895052E97FB1EF400945A
:101450000E943B0A57FD07D00E948D0A07FC03D06B
:101460004EF40C943B0A50954095309521953F4F92
:101470004F4F5F4F089590958095709561957F4F80
:101480008F4F9F4F08950E94AF0AA59F900DB49F64
:10149000900DA49F800D911D11240895B7FF0C9409
:1014A000430A0E94430A821B930B08952F923F9296
:1014B0004F925F926F927F928F929F92AF92BF9264
:1014C000CF92DF92EF92FF920F931F93CF93DF9310
:1014D000CDB7DEB7CA1BDB0B0FB6F894DEBF0FBE6D
:1014E000CDBF09942A88398848885F846E847D84BA
:1014F0008C849B84AA84B984C884DF80EE80FD80BC
:101500000C811B81AA81B981CE0FD11D0FB6F89431
:10151000DEBF0FBECDBFED010895A1E21A2EAA1BBA
:10152000BB1BFD010DC0AA1FBB1FEE1FFF1FA21793
:10153000B307E407F50720F0A21BB30BE40BF50B90
:10154000661F771F881F991F1A9469F76095709519
:10155000809590959B01AC01BD01CF010895A29F9C
:10156000B001B39FC001A39F700D811D1124911D77
:10157000B29F700D811D1124911D0895EE0FFF1F64
:101580000590F491E02D09940F931F93CF93DF936F
:101590008230910510F482E090E0E091C903F0916F
:1015A000CA0330E020E0B0E0A0E0309799F42115C4
:1015B000310509F44AC0281B390B24303105D8F510
:1015C0008A819B816115710589F1FB019383828377
:1015D000FE0111C0408151810281138148175907D2
:1015E000E0F04817590799F4109761F012960C93A0
:1015F000129713961C933296CF01DF91CF911F91D2
:101600000F9108950093C9031093CA03F4CF2115D5
:10161000310551F04217530738F0A901DB019A0157
:10162000BD01DF01F801C1CFEF01F9CF9093CA03EB
:101630008093C903CDCFFE01E20FF31F81939193F5
:101640002250310939832883D7CF2091C7033091A5
:10165000C803232B41F420910E0130910F013093E8
:10166000C8032093C70320910C0130910D0121156F
:10167000310541F42DB73EB7409110015091110151
:10168000241B350BE091C703F091C803E217F30761
:10169000A0F42E1B3F0B2817390778F0AC014E5FE2
:1016A0005F4F2417350748F04E0F5F1F5093C80354
:1016B0004093C703819391939FCFF0E0E0E09CCFEC
:1016C000CF93DF930097E9F0FC01329713821282E7
:1016D000A091C903B091CA03ED0130E020E010975A
:1016E000A1F420813181820F931F2091C703309193
:1016F000C8032817390709F061C0F093C803E093C5
:10170000C703DF91CF910895EA01CE17DF07E8F50F
:101710004A815B819E0141155105B1F7E901FB83C7
:10172000EA8349915991C40FD51FEC17FD0761F465
:10173000808191810296840F951FE90199838883A6
:10174000828193819B838A83F0E0E0E012968D9101
:101750009C9113970097B9F52D913C911197CD016C
:101760000296820F931F2091C7033091C803281758
:10177000390739F6309751F51092CA031092C90310
:10178000B093C803A093C703BCCFD383C283408167
:101790005181840F951FC817D90761F44E5F5F4FC1
:1017A00088819981480F591F518340838A819B8189
:1017B000938382832115310509F0B0CFF093CA03DA
:1017C000E093C9039ECFFD01DC01C0CF13821282DA
:1017D000D7CFB0E0A0E0EFEEFBE00C94580A8C010C
:1017E000009751F4CB010E94C40A8C01C801CDB707
:1017F000DEB7E0E10C94740AFC01E60FF71F9C01D0
:1018000022503109E217F30708F49DC0D901CD91A8
:10181000DC911197C617D70798F0C530D10530F382
:10182000CE0104978617970708F3C61BD70B22979C
:10183000C193D1936D937C93CF010E94600BD6CF5F
:101840005B01AC1ABD0A4C018C0E9D1EA091C90310
:10185000B091CA03512C412CF12CE12C109731F599
:101860008091C7039091C8038815990509F05CC061
:101870004616570608F058C080910C0190910D0152
:10188000009741F48DB79EB740911001509111011E
:10189000841B950BE817F90708F055C0F093C803AF
:1018A000E093C703F90171836083A0CF8D919C9170
:1018B000119712966C90129713967C901397A81517
:1018C000B90559F56C0142E0C40ED11CCA14DB0401
:1018D00020F1AC014A195B09DA011296159780F0E4
:1018E0006282738251834083D9016D937C93E114AA
:1018F000F10471F0D7011396FC93EE93129776CF13
:1019000022968C0F9D1FF90191838083F301EFCF05
:10191000F093CA03E093C90369CF4816590608F447
:101920002C017D01D3019ACFCB010E94C40A7C0116
:10193000009749F0AE01B8010E94A60CC8010E94B0
:10194000600B870153CF10E000E050CFFB01DC01BA
:1019500002C001900D9241505040D8F70895FB010C
:10196000DC0101900D920020E1F7089510E0C2E63D
:10197000D0E004C0FE010E94BE0A2196C336D10702
:10198000C9F7F894FFCFFFFFFFFF230223020100F6
:1019900000000000CB038000000000002D018D003E
:1019A000BA007A01EB00C900DD002D2E2D2E002E8D
:1019B0002E2D2E002E2D2E2E002E2D2D2E002D2DD7
:1019C0002E2D002D2E2E2D002D2E2D2D002D2D2DCA
:1019D0002D2D002E2D2D2D2D002E2E2D2D2D002EBA
:1019E0002E2E2D2D002E2E2E2E2D002E2E2E2E2E76
:1019F000002D2E2E2E2E002D2D2E2E2E002D2D2D97
:101A00002E2E002D2D2D2D2E00736F73004461732B
:101A10006800446F74004932432041646472657306
:101A2000733A20000D0A0043757272656E74207758
:061A30006F72643A200011
:107800000C94343C0C94513C0C94513C0C94513CE1
:107810000C94513C0C94513C0C94513C0C94513CB4
:107820000C94513C0C94513C0C94513C0C94513CA4
:107830000C94513C0C94513C0C94513C0C94513C94
:107840000C94513C0C94513C0C94513C0C94513C84
:107850000C94513C0C94513C0C94513C0C94513C74
:107860000C94513C0C94513C11241FBECFEFD8E036
:10787000DEBFCDBF11E0A0E0B1E0ECE9FFE702C060
:1078800005900D92A230B107D9F712E0A2E0B1E065
:1078900001C01D92AD30B107E1F70E942D3D0C945F
:1078A000CC3F0C94003C982F959595959595959582
:1078B000905D8F708A307CF0282F295A8091C0000B
:1078C00085FFFCCF9093C6008091C00085FFFCCF60
:1078D0002093C6000895282F205DF0CF982F809127
:1078E000C00085FFFCCF9093C6000895EF92FF92F1
:1078F0000F931F93EE24FF2487018091C00087FD22
:1079000017C00894E11CF11C011D111D81E4E8164B
:1079100082E4F8068FE0080780E0180770F3E09132
:107920000401F091050109958091C00087FFE9CF1E
:107930008091C6001F910F91FF90EF9008950E94D3
:10794000763C982F8091C00085FFFCCF9093C600B5
:1079500091362CF490330CF09053892F089597555D
:10796000892F08951F930E949F3C182F0E949F3CCF
:107970001295107F810F1F9108951F93182F882350
:1079800021F00E94763C1150E1F71F9108951F935A
:10799000182F0E94763C803249F0809103018F5F5E
:1079A000809303018530C1F01F9108958091C0003C
:1079B00085FFFCCF84E18093C6008091C00085FFE5
:1079C000FCCF1093C6008091C00085FFFCCF80E102
:1079D0008093C6001F910895E0910401F091050184
:1079E00009951F9108950E94763C803241F0809164
:1079F00003018F5F80930301853081F008958091AA
:107A0000C00085FFFCCF84E18093C6008091C00058
:107A100085FFFCCF80E18093C6000895E0910401CA
:107A2000F09105010995089540E951E08823A1F0FE
:107A30002D9A28EE33E0FA013197F1F721503040CA
:107A4000D1F72D9828EE33E0FA013197F1F7215064
:107A50003040D1F7815061F708953F924F925F9285
:107A60006F927F928F929F92AF92BF92CF92DF924E
:107A7000EF92FF920F931F93CF93DF93000080E16B
:107A80008093C4001092C50088E18093C10086E015
:107A90008093C2005098589A259A81E00E94143D24
:107AA00024E1F22E9EE1E92E85E9D82E0FE0C02ECA
:107AB00010E1B12EAA24A394B1E49B2EA6E58A2E50
:107AC000F2E57F2EE0E26E2E79E4572E63E5462E36
:107AD00050E5352E0E94763C8033B1F18133B9F107
:107AE000803409F46FC0813409F476C0823409F41B
:107AF00085C0853409F488C0803531F1823521F1A3
:107B0000813511F1853509F485C0863509F48DC0BC
:107B1000843609F496C0843709F403C1853709F423
:107B200072C1863709F466C0809103018F5F80932C
:107B30000301853079F6E0910401F0910501099582
:107B40000E94763C803351F60E94F33CC3CF0E94E2
:107B5000763C803249F78091C00085FFFCCFF092DF
:107B6000C6008091C00085FFFCCF9092C600809136
:107B7000C00085FFFCCF8092C6008091C00085FFC9
:107B8000FCCF7092C6008091C00085FFFCCF609250
:107B9000C6008091C00085FFFCCF5092C600809146
:107BA000C00085FFFCCF4092C6008091C00085FFD9
:107BB000FCCF3092C6008091C00085FFFCCFB09210
:107BC000C60088CF0E94763C863808F4BDCF0E945C
:107BD000763C0E94F33C7ECF0E94763C803809F4CC
:107BE0009CC0813809F40BC1823809F43CC1883942
:107BF00009F48FC080E00E94C73C6CCF84E10E94F2
:107C0000BD3C0E94F33C66CF85E00E94BD3C0E94D3
:107C1000F33C60CF0E94763C809306010E94763C44
:107C2000809307010E94F33C55CF0E94763C80333D
:107C300009F41DC183E00E94BD3C80E00E94C73C66
:107C400049CF0E94763C809309020E94763C809343
:107C5000080280910C028E7F80930C020E94763C79
:107C6000853409F415C18091080290910902892B8D
:107C700089F000E010E00E94763CF801E85FFE4FDA
:107C800080830F5F1F4F80910802909109020817AF
:107C9000190788F30E94763C803209F045CF809125
:107CA0000C0280FF01C16091060170910701660F0F
:107CB000771F7093070160930601A0910802B091AD
:107CC00009021097C9F0E8E0F1E09B01AD014E0F09
:107CD0005F1FF999FECF32BD21BD819180BDFA9A17
:107CE000F99A2F5F3F4FE417F50799F76A0F7B1F4B
:107CF00070930701609306018091C00085FFFCCF5F
:107D0000F092C6008091C00085FFFCCFB092C60003
:107D1000E1CE83E00E94C73CDDCE82E00E94C73CFA
:107D2000D9CE0E94763C809309020E94763C8093D3
:107D300008028091060190910701880F991F909386
:107D40000701809306010E94763C853409F4A6C0A1
:107D500080910C028E7F80930C020E94763C8032D0
:107D600009F0B8CE8091C00085FFFCCFF092C6002C
:107D7000609108027091090261157105B9F140E046
:107D800050E080910C02A82FA170B82FB27011C0E2
:107D9000BB2309F45CC0E0910601F0910701319624
:107DA000F0930701E09306014F5F5F4F46175707B7
:107DB000E8F4AA2369F3F999FECF209106013091E6
:107DC000070132BD21BDF89A90B58091C00085FFB2
:107DD000FCCF9093C6002F5F3F4F30930701209355
:107DE00006014F5F5F4F4617570718F38091C00099
:107DF00085FDE5CE8091C00085FFF8CFE0CE81E023
:107E00000E94C73C67CE0E94763C803209F08CCE3F
:107E10008091C00085FFFCCFF092C6008091C00029
:107E200085FFFCCFE092C6008091C00085FFFCCFAB
:107E3000D092C6008091C00085FFFCCFC092C600E2
:107E40008091C00085FFFCCFB092C60043CEE09188
:107E50000601F091070194918091C00085FFFCCF4D
:107E60009093C6009CCF80E10E94C73C33CE0E9415
:107E7000763C0E94763C182F0E94763C112309F430
:107E800083C0113009F484C08FE00E94C73C22CE29
:107E900080910C02816080930C02E5CE80910C02EF
:107EA000816080930C0259CF809107018823880F4D
:107EB000880B8A2180930B02809106019091070123
:107EC000880F991F90930701809306018091080203
:107ED00080FF09C080910802909109020196909359
:107EE000090280930802F894F999FECF1127E091D6
:107EF0000601F0910701C8E0D1E08091080290915D
:107F00000902103091F40091570001700130D9F34B
:107F100003E000935700E89500915700017001308D
:107F2000D9F301E100935700E89509901990009169
:107F3000570001700130D9F301E000935700E89534
:107F40001395103498F011270091570001700130FB
:107F5000D9F305E000935700E895009157000170B0
:107F60000130D9F301E100935700E895329602976A
:107F700009F0C7CF103011F00296E5CF112480919F
:107F8000C00085FFB9CEBCCE8EE10E94C73CA2CD19
:0E7F900085E90E94C73C9ECDF894FFCF80008B
:00000001FF
