:100000000C9458000C9480000C9480000C94800098
:100010000C9480000C9480000C9480000C94800060
:100020000C9480000C9480000C9480000C94800050
:100030000C9480000C9480000C9480000C94800040
:100040000C9404050C9480000C94D2040C94AC0421
:100050000C9480000C9480000C9480000C94800020
:100060000C944E050C948000000000002500280030
:100070002B00040404040404040402020202020229
:10008000030303030303010204081020408001025C
:1000900004081020010204081020000000080002DB
:1000A00001000003040700000000000000006D06CE
:1000B00011241FBECFEFD8E0DEBFCDBF12E0A0E01D
:1000C000B1E0E6E7F2E102C005900D92AA30B10777
:1000D000D9F723E0AAE0B2E001C01D92A93FB20720
:1000E000E1F710E0C8E5D0E004C02197FE010E94CE
:1000F0003309C735D107C9F70E94A6060C94390900
:100100000C94000008950895AF92BF92CF92DF92B1
:10011000EF92FF920F931F93CF93DF936C017B01BC
:100120008B01040F151FEB015E01AE18BF08C0174D
:10013000D10759F06991D601ED91FC910190F081C0
:10014000E02DC6010995892B79F7C501DF91CF9183
:100150001F910F91FF90EF90DF90CF90BF90AF90E5
:100160000895FC01538D448D252F30E0842F90E0BD
:10017000821B930B541710F0CF96089501970895A2
:10018000FC01918D828D981761F0A28DAE0FBF2F6B
:10019000B11D5D968C91928D9F5F9F73928F90E0C1
:1001A00008958FEF9FEF0895FC01918D828D981730
:1001B00031F0828DE80FF11D858D90E008958FEF6D
:1001C0009FEF0895FC01918D228D892F90E0805C36
:1001D0009F4F821B91098F739927089580E593E0C3
:1001E0000E94E20021E0892B09F420E0822F08958B
:1001F00080E090E0892B29F00E94EE0081110C94A0
:1002000000000895FC01A48DA80FB92FB11DA35AB9
:10021000BF4F2C91848D90E001968F739927848F26
:10022000A689B7892C93A089B1898C918370806449
:100230008C93938D848D981306C00288F389E02DEA
:1002400080818F7D80830895EF92FF920F931F939B
:10025000CF93DF93EC0181E0888F9B8D8C8D981379
:100260001AC0E889F989808185FF15C09FB7F89485
:10027000EE89FF896083E889F989808183708064D1
:1002800080839FBF81E090E0DF91CF911F910F911C
:10029000FF90EF900895F62E0B8D10E00F5F1F4F2B
:1002A0000F731127E02E8C8D8E110CC00FB607FC3A
:1002B000FACFE889F989808185FFF5CFCE010E94C8
:1002C0000201F1CFEB8DEC0FFD2FF11DE35AFF4F33
:1002D000F0829FB7F8940B8FEA89FB898081806256
:1002E000CFCFCF93DF93EC01888D8823B9F0AA8913
:1002F000BB89E889F9898C9185FD03C0808186FDE1
:100300000DC00FB607FCF7CF8C9185FFF2CF80812F
:1003100085FFEDCFCE010E940201E9CFDF91CF91A1
:10032000089590E0FC01E656FF4F2491FC01EA5746
:10033000FF4F3491FC01EE58FF4FE491EE23C9F0DA
:10034000222339F0233001F1A8F4213019F12230B1
:1003500029F1F0E0EE0FFF1FE859FF4FA591B4918E
:100360008FB7F894EC91611126C030953E233C93F1
:100370008FBF08952730A9F02830C9F0243049F7FD
:10038000809180008F7D03C0809180008F77809363
:100390008000DFCF84B58F7784BDDBCF84B58F7DC0
:1003A000FBCF8091B0008F778093B000D2CF809147
:1003B000B0008F7DF9CF3E2BDACF3FB7F894809114
:1003C000530290915402A0915502B091560226B565
:1003D000A89B05C02F3F19F00196A11DB11D3FBF7D
:1003E000BA2FA92F982F8827BC01CD01620F711D4C
:1003F000811D911D42E0660F771F881F991F4A9546
:10040000D1F7089520912B02260F3327331F213275
:100410003105ECF420912603FC0190E080E02430CB
:1004200069F082E00895A0912B022191AC01455F13
:100430005D4FA40FB52FB11D2C930196861798F32D
:1004400080912B02680F60932B0280E0089581E079
:1004500008951092260381E08093250310920003F3
:1004600061E082E10E94910161E083E10E949101DB
:10047000E9EBF0E080818E7F808380818D7F8083B7
:1004800088E48093B80085E48093BC000895CF93FE
:10049000DF9391E090930A028823B9F0C091B800ED
:1004A000D091BA008091BC008A7B8093BC0060E050
:1004B00082E10E94910160E083E10E9491010E942B
:1004C0002902D093BA00C093B800DF91CF9108956C
:1004D0008F929F92AF92BF92CF92DF92EF92FF9254
:1004E0000F931F93CF93DF93D0914F03D13208F036
:1004F000D7C0182FC0914E030E94DD016B017C0113
:100500008091260381116BC082E0809326031093B3
:1005100025038FEF8093240310922303D0932203AB
:10052000AEE2B3E0E2E0F3E080E0D81391C01092D5
:10053000010380910103CC0FC82BC093010380916C
:100540000003813009F088C0109200030E94DD0191
:100550006B017C01809101038093BB008091280393
:1005600090912903A0912A03B0912B03892B8A2B08
:100570008B2BA1F00E94DD0100912803109129032B
:1005800020912A0330912B036C197D098E099F0954
:10059000061717072807390708F442C08091BC00E6
:1005A00083FDD8CF85EC8093BC000E94DD016B01F8
:1005B0007C0180912603823009F450C0809124038D
:1005C0008F3F09F46FC080912403803209F46CC01E
:1005D00080912403803309F469C084E026C08091AF
:1005E000280390912903A0912A03B0912B03892B12
:1005F0008A2B8B2B09F484CF0E94DD018090280385
:1006000090902903A0902A03B0902B036C197D09C8
:100610008E099F0986169706A806B90608F070CFBE
:10062000809127030E94470285E010922D031092CB
:100630004F0310922C03DF91CF911F910F91FF90E8
:10064000EF90DF90CF90BF90AF909F908F900895E4
:100650009D9191938F5F69CF85EEA5CF80912803FF
:1006600090912903A0912A03B0912B03892B8A2B07
:100670008B2B09F49ECF0E94DD010091280310917D
:10068000290320912A0330912B036C197D098E09CF
:100690009F09061717072807390708F08ACFC0CF28
:1006A00081E0C3CF80E0C1CF82E0BFCF83E0BDCF88
:1006B0000895E0915C0280915B02E81730F4F0E06D
:1006C000E35AFD4F808190E008958FEF9FEF0895EA
:1006D00090915C0280915B022FEF3FEF981748F4F6
:1006E000E92FF0E0E35AFD4F208130E09F5F9093C7
:1006F0005C02C901089580915B0290915C02891BA4
:10070000990B0895CF92DF92EF92FF920F931F9370
:10071000CF93DF937C01CB018A0120912C0322230C
:1007200089F0EB016B01C40ED51ECC15DD0569F017
:100730006991D701ED91FC910190F081E02DC70105
:100740000995F3CF642F0E940202C801DF91CF9177
:100750001F910F91FF90EF90DF90CF900895CF936E
:10076000DF931F92CDB7DEB7698320912C0322233C
:10077000F9F020914F03203258F021E030E0FC01E5
:100780003383228390E080E00F90DF91CF91089532
:1007900080912D03E82FF0E0E25DFC4F998190837A
:1007A0008F5F80932D0380934F0381E090E0ECCF27
:1007B00061E0CE0101960E940202F7CF90E080E056
:1007C0000895FC0101900020E9F73197AF01481B23
:1007D000590BBC0180E593E00C9484008F929F92AA
:1007E000AF92BF920F931F93CF93DF93CDB7DEB736
:1007F000A1970FB6F894DEBF0FBECDBF19A242304D
:1008000008F44AE08E010F5D1F4F842E912CB12C0D
:10081000A12CA50194010E941109E62FB901CA017A
:10082000EA30F4F4E05DD801EE938D01232B242B04
:10083000252B79F790E080E0109719F0CD010E9408
:10084000E103A1960FB6F894DEBF0FBECDBFDF91D6
:10085000CF911F910F91BF90AF909F908F9008956F
:10086000E95CE1CFCF92DF92EF92FF92CF93DF93DB
:100870006B017C016DE280E593E00E942401EC01B4
:1008800066277727CB016C197D098E099F094AE0FD
:100890000E94EE038C0F9D1FDF91CF91FF90EF9090
:1008A000DF90CF900895CF93DF930E94E103EC0196
:1008B00084E291E00E94E1038C0F9D1FDF91CF91B4
:1008C0000895CF93DF93BC01990F880B990B4AE0F1
:1008D0000E94EE03EC0184E291E00E94E1038C0FA0
:1008E0009D1FDF91CF91089585ED8093BC0080918D
:1008F000280390912903A0912A03B0912B03079616
:10090000A11DB11D23E0B695A795979587952A95CA
:10091000D1F72091BC0024FD03C010922603089556
:10092000409128035091290360912A0370912B0371
:10093000452B462B472B69F30097A105B10541F0E4
:1009400025E32A95F1F700000197A109B109E1CF4C
:10095000809127030C9447021F920F920FB60F92BB
:1009600011242F933F934F935F936F937F938F93B4
:100970009F93AF93BF93EF93FF9380E593E00E9423
:100980000201FF91EF91BF91AF919F918F917F9164
:100990006F915F914F913F912F910F900FBE0F90EC
:1009A0001F9018951F920F920FB60F9211242F933C
:1009B0008F939F93EF93FF93E0916003F091610316
:1009C0008081E0916603F091670382FD1BC09081F6
:1009D000809169038F5F8F7320916A03821741F0C2
:1009E000E0916903F0E0E05BFC4F958F8093690331
:1009F000FF91EF919F918F912F910F900FBE0F90CC
:100A00001F9018958081F4CF1F920F920FB60F920E
:100A100011242F933F938F939F93AF93BF93809114
:100A20004F0290915002A0915102B0915202309128
:100A30004E0223E0230F2D3758F50196A11DB11D5D
:100A400020934E0280934F0290935002A093510244
:100A5000B09352028091530290915402A09155029A
:100A6000B09156020196A11DB11D8093530290933F
:100A70005402A0935502B0935602BF91AF919F913B
:100A80008F913F912F910F900FBE0F901F9018954F
:100A900026E8230F0296A11DB11DD2CF1F920F92FF
:100AA0000FB60F9211242F933F934F935F936F9341
:100AB0007F938F939F93AF93BF93EF93FF93809117
:100AC000B900887F803609F44AC0F0F5883209F40D
:100AD000A7C018F5803109F49BC0B8F4882309F445
:100AE000F9C0883009F494C0FF91EF91BF91AF91A4
:100AF0009F918F917F916F915F914F913F912F9136
:100B00000F900FBE0F901F901895883109F488C080
:100B1000803251F78093240314C0803409F49DC0BF
:100B200040F48033B9F38833F9F68093240385ECDD
:100B3000B0C0803509F485C0883509F496C0883482
:100B400099F60E947404D0CF883909F48CC038F526
:100B5000883729F050F4883611F0803729F683E081
:100B60008093260310924D0257C0883809F47BC049
:100B7000803919F0803809F0B7CF80914D0280326A
:100B800008F071C0E0914D0281E08E0F80934D021C
:100B90008091BB00F0E0E35DFD4F80833DC0803B72
:100BA00039F0E0F4803A09F479C0883A09F09CCF32
:100BB00084E08093260310922C0210922B02E09185
:100BC0005902F0915A02099580912B0281110FC0B0
:100BD00081E080932B0210920B0209C0803C09F443
:100BE000A6CF883C09F4A3CF883B09F07DCFE091E4
:100BF0002C0281E08E0F80932C02F0E0E55FFD4F28
:100C000080818093BB0090912C0280912B0229C09F
:100C1000809101038093BB0085EC8093BC0064CF7E
:100C20009091230380912203981758F5E0912303B4
:100C300081E08E0F80932303F0E0EE5FFC4F808114
:100C4000E9CFE091230381E08E0F8093230380910D
:100C5000BB00F0E0EE5FFC4F808390912303809116
:100C600022039817C8F285E8D8CFE091230381E0EA
:100C70008E0F809323038091BB00F0E0EE5FFC4F6A
:100C800080838091250381115CCF81E080930003F4
:100C900084EA8093BC001092260326CF85EC8093D3
:100CA000BC001092260380914D02803230F4E09116
:100CB0004D02F0E0E35DFD4F108260914D0270E067
:100CC000E0915702F09158028DE292E0099510925E
:100CD0004D020ACF1092240334CFE0E5F3E01382F3
:100CE000128288EE93E0A0E0B0E084839583A6832F
:100CF000B78324E031E03183208325EC30E0358771
:100D0000248724EC30E03787268720EC30E0318BD5
:100D1000208B21EC30E0338B228B22EC30E0358BC2
:100D2000248B26EC30E0378B268B118E128E138E9F
:100D3000148EEDEEF3E01382128284839583A683F2
:100D4000B78386E191E0918380830895789484B598
:100D5000826084BD84B5816084BD85B5826085BDB7
:100D600085B5816085BD80916E00816080936E0045
:100D70001092810080918100826080938100809137
:100D800081008160809381008091800081608093E8
:100D900080008091B10084608093B1008091B000A8
:100DA00081608093B00080917A00846080937A00A3
:100DB00080917A00826080937A0080917A008160CD
:100DC00080937A0080917A00806880937A001092F4
:100DD000C10087E291E00E94530410925C021092DD
:100DE0005B0210922D0310924F030E94290282E8A9
:100DF00090E090935A028093590283E890E0909398
:100E0000580280935702E0916003F091610382E001
:100E10008083E0915C03F0915D031082E0915E03BA
:100E2000F0915F038FEC808310926803E09164037C
:100E3000F091650386E08083E0916203F0916303A3
:100E4000808180618083E0916203F09163038081FF
:100E500088608083E0916203F09163038081806801
:100E60008083E0916203F091630380818F7D8083B2
:100E70000E94DD012B013C0124E6C22ED12CE12C85
:100E8000F12C0E94DD016419750986099709683EF5
:100E9000734081059105A8F321E0C21AD108E10849
:100EA000F10888EE480E83E0581E611C711CC114C5
:100EB000D104E104F10429F786E391E00E94530490
:100EC000C12CD12C7601C394D1E0CC2DD0932C032E
:100ED000C0924E0310922D0310924F0381E00E94A6
:100EE0006802811104C18EE491E00E94E103C031E7
:100EF00020F48AE691E00E94E10340E1C701B601D7
:100F00000E94EE0384E291E00E94E1038091FC02E2
:100F10009091FD02FC01E358FD4FC0830196909330
:100F2000FD028093FC02FFEFCF1ADF0AEF0AFF0AEF
:100F30002FE7C216D104E104F10439F689E891E003
:100F40000E94E1036091FC027091FD02072E000CEB
:100F5000880B990B97FFE2C00E94320481E991E06F
:100F60000E9453048CE991E00E94530481E0809335
:100F70002C0310924E0310922D0310924F0362E047
:100F80008DEE93E00E94AF0361E08DEE93E00E944E
:100F9000AF0381E00E946802C82FD0E0209739F0AB
:100FA00086EA91E00E94E103CE010E94610481E0A3
:100FB00080932C0310924E0310922D0310924F0336
:100FC00061E08DEE93E00E94AF0381E00E94680231
:100FD000C82FD0E0209739F08DEC91E00E94E1031A
:100FE000CE010E946104D5EE85ECB82E00E010E041
:100FF000C1E0AA24AA94E12CD12CC12C8C2D90E024
:101000002091FC023091FD02821793070CF0E9C099
:1010100083589D4FFC01F0800E94DD012B013C01B3
:101020008091260381117EC0C0932603C0932503BF
:10103000A092240310922303C0932203C0930103C0
:1010400080910103FF0CF82AF092010380910003C4
:10105000813009F09FC0109200030E94DD012B0136
:101060003C01809101038093BB0080912803909103
:101070002903A0912A03B0912B03892B8A2B8B2B58
:10108000A1F00E94DD0120912803309129034091B5
:101090002A0350912B0364197509860997092617AD
:1010A00037074807590708F45EC08091BC0083FDEC
:1010B000D8CFB092BC000E94DD012B013C01809191
:1010C0002603813009F469C080912303823008F03F
:1010D00086C080912303A2E0B3E0EDE5F2E090E06A
:1010E000981709F445C02D9121939F5FF9CF843063
:1010F00009F019CF8CE691E00E94E103C03120F4A1
:101100008AE691E00E94E10340E1C701B6010E9436
:10111000EE0384E291E00E94E10305CF4AE00E94E1
:10112000EE031CCF8091280390912903A0912A03FC
:10113000B0912B03892B8A2B8B2B09F471CF0E9442
:10114000DD01209128033091290340912A03509119
:101150002B0364197509860997092617370748076D
:10116000590708F05DCF809127030E94470280E075
:1011700010925C0280935B028DEE93E00E94680304
:10118000F82E8DEE93E00E946803F1FCE394D80EF4
:10119000C39434CFD093BC008ECF8091280390911C
:1011A0002903A0912A03B0912B03892B8A2B8B2B27
:1011B00009F485CF0E94DD01209128033091290395
:1011C00040912A0350912B036419750986099709E8
:1011D000261737074807590708F071CFC4CF82E0B8
:1011E0007ACF8091FF028D1521F089EE91E00E9467
:1011F00053048091FE028E1521F084EF91E00E944D
:101200005304D092FF02E092FE020115110509F489
:10121000F2CE0E94EE00882309F4EDCE0E94000079
:10122000EACEA1E21A2EAA1BBB1BFD010DC0AA1F0C
:10123000BB1FEE1FFF1FA217B307E407F50720F03F
:10124000A21BB30BE40BF50B661F771F881F991FBA
:101250001A9469F760957095809590959B01AC0103
:10126000BD01CF010895EE0FFF1F0590F491E02D11
:061270000994F894FFCF81
:101276000000000024018400B1007101E200C000FA
:10128600D40000000000AF038203DE0358037B0393
:10129600680359030D0A004D617374657220626F0D
:1012A6006F74696E67005363616E6E696E67206660
:1012B6006F72206D6F64756C65732E2E2E00094D4E
:1012C6006F64756C6520666F756E6420617420614D
:1012D60064647265737320307800300009556E6B54
:1012E6006E6F776E206572726F7220617420616412
:1012F60064726573732030780009466F756E6420DA
:1013060000206D6F64756C65287329000946696E47
:101316006973686564004572726F722073656E64E6
:10132600696E67207365742D646966666963756C9A
:10133600747920636F6D6D616E643A200045727238
:101346006F722073656E64696E672061726D2063CB
:101356006F6D6D616E643A20004E6577207374720E
:10136600696B65004E6577206D6F64756C652064EA
:0A137600697361726D696E67000013
:00000001FF
