:020000040000FA
:100000000C9458000C9480000C9480000C94800098
:100010000C9480000C9480000C9480000C94800060
:100020000C9480000C9480000C9480000C94800050
:100030000C9480000C9480000C9480000C94800040
:100040000C94E0030C9480000C94AE030C94880391
:100050000C9480000C9480000C9480000C94800020
:100060000C942A040C948000000000002500280055
:100070002B00040404040404040402020202020229
:10008000030303030303010204081020408001025C
:1000900004081020010204081020000000080002DB
:1000A00001000003040700000000000000004905F3
:1000B00011241FBECFEFD8E0DEBFCDBF11E0A0E01E
:1000C000B1E0E2E2FFE002C005900D92AE39B10767
:1000D000D9F723E0AEE9B1E001C01D92AA30B20722
:1000E000E1F710E0C8E5D0E004C02197FE010E94CE
:1000F0008907C735D107C9F70E9482050C948F077D
:100100000C94000008950895AF92BF92CF92DF92B1
:10011000EF92FF920F931F93CF93DF936C017B01BC
:100120008B01040F151FEB015E01AE18BF08C0174D
:10013000D10759F06991D601ED91FC910190F081C0
:10014000E02DC6010995892B79F7C501DF91CF9183
:100150001F910F91FF90EF90DF90CF90BF90AF90E5
:100160000895FC01538D448D252F30E0842F90E0BD
:10017000821B930B541710F0CF96089501970895A2
:10018000FC01918D828D981761F0A28DAE0FBF2F6B
:10019000B11D5D968C91928D9F5F9F73928F90E0C1
:1001A00008958FEF9FEF0895FC01918D828D981730
:1001B00031F0828DE80FF11D858D90E008958FEF6D
:1001C0009FEF0895FC01918D228D892F90E0805C36
:1001D0009F4F821B91098F739927089581E692E0C2
:1001E0000E94E20021E0892B09F420E0822F08958B
:1001F00080E090E0892B29F00E94EE0081110C94A0
:1002000000000895FC01A48DA80FB92FB11DA35AB9
:10021000BF4F2C91848D90E001968F739927848F26
:10022000A689B7892C93A089B1898C918370806449
:100230008C93938D848D981306C00288F389E02DEA
:1002400080818F7D80830895EF92FF920F931F939B
:10025000CF93DF93EC0181E0888F9B8D8C8D981379
:100260001AC0E889F989808185FF15C09FB7F89485
:10027000EE89FF896083E889F989808183708064D1
:1002800080839FBF81E090E0DF91CF911F910F911C
:10029000FF90EF900895F62E0B8D10E00F5F1F4F2B
:1002A0000F731127E02E8C8D8E110CC00FB607FC3A
:1002B000FACFE889F989808185FFF5CFCE010E94C8
:1002C0000201F1CFEB8DEC0FFD2FF11DE35AFF4F33
:1002D000F0829FB7F8940B8FEA89FB898081806256
:1002E000CFCFCF93DF93EC01888D8823B9F0AA8913
:1002F000BB89E889F9898C9185FD03C0808186FDE1
:100300000DC00FB607FCF7CF8C9185FFF2CF80812F
:1003100085FFEDCFCE010E940201E9CFDF91CF91A1
:10032000089590E0FC01E656FF4F2491FC01EA5746
:10033000FF4F3491FC01EE58FF4FE491EE23C9F0DA
:10034000222339F0233001F1A8F4213019F12230B1
:1003500029F1F0E0EE0FFF1FE859FF4FA591B4918E
:100360008FB7F894EC91611126C030953E233C93F1
:100370008FBF08952730A9F02830C9F0243049F7FD
:10038000809180008F7D03C0809180008F77809363
:100390008000DFCF84B58F7784BDDBCF84B58F7DC0
:1003A000FBCF8091B0008F778093B000D2CF809147
:1003B000B0008F7DF9CF3E2BDACF3FB7F894809114
:1003C000070290910802A0910902B0910A0226B595
:1003D000A89B05C02F3F19F00196A11DB11D3FBF7D
:1003E000BA2FA92F982F8827BC01CD01620F711D4C
:1003F000811D911D42E0660F771F881F991F4A9546
:10040000D1F708952091DF01260F3327331F2132C2
:100410003105ECF420913702FC0190E080E02430BB
:1004200069F082E00895A091DF012191AC0141546F
:100430005E4FA40FB52FB11D2C930196861798F32C
:100440008091DF01680F6093DF0180E0089581E013
:1004500008951092370281E08093360210921102C3
:1004600061E082E10E94910161E083E10E949101DB
:10047000E9EBF0E080818E7F808380818D7F8083B7
:1004800088E48093B80085E48093BC000895CF93FE
:10049000DF9391E09093BE018823B9F0C091B8003A
:1004A000D091BA008091BC008A7B8093BC0060E050
:1004B00082E10E94910160E083E10E9491010E942B
:1004C0002902D093BA00C093B800DF91CF9108956C
:1004D0000895E091100280910F02E81730F4F0E0E7
:1004E000E256FE4F808190E008958FEF9FEF0895D0
:1004F0009091100280910F022FEF3FEF981748F470
:10050000E92FF0E0E256FE4F208130E09F5F9093AC
:100510001002C901089580910F0290911002891B69
:10052000990B0895CF92DF92EF92FF920F931F9352
:10053000CF93DF937C01CB018A0120913D022223DE
:1005400089F0EB016B01C40ED51ECC15DD0569F0F9
:100550006991D701ED91FC910190F081E02DC701E7
:100560000995F3CF642F0E940202C801DF91CF9159
:100570001F910F91FF90EF90DF90CF900895CF9350
:10058000DF931F92CDB7DEB7698320913D0222230E
:10059000F9F020916002203258F021E030E0FC01B7
:1005A0003383228390E080E00F90DF91CF91089514
:1005B00080913E02E82FF0E0E15CFD4F998190834D
:1005C0008F5F80933E028093600281E090E0ECCFE9
:1005D00061E0CE0101960E940202F7CF90E080E038
:1005E0000895FC0101900020E9F73197AF01481B05
:1005F000590BBC0181E692E00C9484008F929F928B
:10060000AF92BF920F931F93CF93DF93CDB7DEB717
:10061000A1970FB6F894DEBF0FBECDBF19A242302E
:1006200008F44AE08E010F5D1F4F842E912CB12CEF
:10063000A12CA50194010E946707E62FB901CA0108
:10064000EA30F4F4E05DD801EE938D01232B242BE6
:10065000252B79F790E080E0109719F0CD010E94EA
:10066000F102A1960FB6F894DEBF0FBECDBFDF91A9
:10067000CF911F910F91BF90AF909F908F90089551
:10068000E95CE1CFCF93DF930E94F102EC0184E2B9
:1006900091E00E94F1028C0F9D1FDF91CF91089590
:1006A00085ED8093BC008091390290913A02A0912F
:1006B0003B02B0913C020796A11DB11D23E0B69507
:1006C000A795979587952A95D1F72091BC0024FD91
:1006D00003C01092370208954091390250913A02B6
:1006E00060913B0270913C02452B462B472B69F3EE
:1006F0000097A105B10541F025E32A95F1F7000027
:100700000197A109B109E1CF809138020C94470209
:100710001F920F920FB60F9211242F933F934F9376
:100720005F936F937F938F939F93AF93BF93EF9359
:10073000FF9381E692E00E940201FF91EF91BF9149
:10074000AF919F918F917F916F915F914F913F9169
:100750002F910F900FBE0F901F9018951F920F9220
:100760000FB60F9211242F938F939F93EF93FF93C4
:10077000E0917102F09172028081E0917702F09134
:10078000780282FD1BC0908180917A028F5F8F7307
:1007900020917B02821741F0E0917A02F0E0EF595C
:1007A000FD4F958F80937A02FF91EF919F918F91EA
:1007B0002F910F900FBE0F901F9018958081F4CF4E
:1007C0001F920F920FB60F9211242F933F938F9386
:1007D0009F93AF93BF938091030290910402A091E5
:1007E0000502B09106023091020223E0230F2D375B
:1007F00058F50196A11DB11D2093020280930302BA
:1008000090930402A0930502B09306028091070220
:1008100090910802A0910902B0910A020196A11DCF
:10082000B11D8093070290930802A0930902B09330
:100830000A02BF91AF919F918F913F912F910F909D
:100840000FBE0F901F90189526E8230F0296A11D4A
:10085000B11DD2CF1F920F920FB60F9211242F937A
:100860003F934F935F936F937F938F939F93AF9338
:10087000BF93EF93FF938091B900887F803609F48E
:100880004AC0F0F5883209F4A7C018F5803109F4A0
:100890009BC0B8F4882309F4F9C0883009F494C0E7
:1008A000FF91EF91BF91AF919F918F917F916F9148
:1008B0005F914F913F912F910F900FBE0F901F901E
:1008C0001895883109F488C0803251F78093350239
:1008D00014C0803409F49DC040F48033B9F38833E8
:1008E000F9F68093350285ECB0C0803509F485C0F7
:1008F000883509F496C0883499F60E945003D0CF09
:10090000883909F48CC038F5883729F050F48836D6
:1009100011F0803729F683E08093370210920102AC
:1009200057C0883809F47BC0803919F0803809F045
:10093000B7CF80910102803208F071C0E0910102CE
:1009400081E08E0F809301028091BB00F0E0EF51B7
:10095000FE4F80833DC0803B39F0E0F4803A09F4DB
:1009600079C0883A09F09CCF84E0809337021092D6
:10097000E0011092DF01E0910D02F0910E02099565
:100980008091DF0181110FC081E08093DF0110921F
:10099000BF0109C0803C09F4A6CF883C09F4A3CF6D
:1009A000883B09F07DCFE091E00181E08E0F8093DC
:1009B000E001F0E0E154FE4F80818093BB00909114
:1009C000E0018091DF0129C0809112028093BB0079
:1009D00085EC8093BC0064CF909134028091330207
:1009E000981758F5E091340281E08E0F809334021D
:1009F000F0E0ED5EFD4F8081E9CFE091340281E0CF
:100A00008E0F809334028091BB00F0E0ED5EFD4FCD
:100A1000808390913402809133029817C8F285E860
:100A2000D8CFE091340281E08E0F80933402809120
:100A3000BB00F0E0ED5EFD4F8083809136028111B6
:100A40005CCF81E08093110284EA8093BC00109215
:100A5000370226CF85EC8093BC001092370280913C
:100A60000102803230F4E0910102F0E0EF51FE4FDC
:100A700010826091010270E0E0910B02F0910C0293
:100A800081EE91E00995109201020ACF1092350291
:100A900034CFE1E6F2E01382128288EE93E0A0E028
:100AA000B0E084839583A683B78324E031E031836B
:100AB000208325EC30E03587248724EC30E037872D
:100AC000268720EC30E0318B208B21EC30E0338B1B
:100AD000228B22EC30E0358B248B26EC30E0378BF8
:100AE000268B118E128E138E148EEEEFF2E013828F
:100AF000128284839583A683B78386E191E09183F4
:100B000080830895789484B5826084BD84B58160C3
:100B100084BD85B5826085BD85B5816085BD8091C8
:100B20006E00816080936E00109281008091810040
:100B30008260809381008091810081608093810038
:100B4000809180008160809380008091B1008460FA
:100B50008093B1008091B00081608093B00080915B
:100B60007A00846080937A0080917A00826080931A
:100B70007A0080917A00816080937A0080917A0077
:100B8000806880937A001092C10010921002109237
:100B90000F0210923E02109260020E94290282E827
:100BA00090E090930E0280930D0283E890E0909382
:100BB0000C0280930B02E0917102F091720282E0CC
:100BC0008083E0916D02F0916E021082E0916F02DD
:100BD000F09170028FEC808310927902E09175029F
:100BE000F091760286E08083E0917302F0917402C6
:100BF000808180618083E0917302F0917402808132
:100C000088608083E0917302F09174028081806833
:100C10008083E0917302F091740280818F7D8083E4
:100C200087E291E00E94420325EE222E35EC332E1E
:100C300040E0A42E40E0B42E52E0852E99249A94F0
:100C400084E391E00E944203C12CD12C7601C3942D
:100C5000D0E0C0E001E01C2D00933D02C0925F0295
:100C600010923E02109260020E94DD012B013C01B5
:100C700080913702811162C0809237020093360260
:100C800090923502109234021092330210921202A6
:100C900090911202812F880F892B809312028091EC
:100CA0001102813009F0D1C0109211020E94DD01C1
:100CB0002B013C01809112028093BB00809139028C
:100CC00090913A02A0913B02B0913C02892B8A2B71
:100CD0008B2BA1F00E94DD012091390230913A0264
:100CE00040913B0250913C026419750986099709AD
:100CF000261737074807590708F441C08091BC0000
:100D000083FDD8CF3092BC000E94DD012B013C0155
:100D100080913702823009F49BC0809135028F3F69
:100D200009F4B8C080913502803209F4B5C08091D1
:100D30003502803309F4B2C084E026C080913902C4
:100D400090913A02A0913B02B0913C02892B8A2BF0
:100D50008B2B09F48DCF0E94DD0120913902309157
:100D60003A0240913B0250913C0264197509860990
:100D70009709261737074807590708F079CF809158
:100D800038020E94470285E010923E0210926002F3
:100D900010923D02811184C080E491E00E94F10232
:100DA000103120F48FE591E00E94F10240E1C7018B
:100DB000B6010E94FE0281E691E00E944203219664
:100DC0002FEFC21AD20AE20AF20A8FE7C816D1043C
:100DD000E104F10409F03FCF81E891E0CD2B11F05F
:100DE00087E991E00E9442030E94DD012B013C0152
:100DF00088E8C82E83E1D82EE12CF12C0E94DD0179
:100E00006419750986099709683E73408105910543
:100E1000A8F321E0C21AD108E108F10888EE480ED3
:100E200083E0581E611C711CC114D104E104F1045B
:100E300029F7A114B10409F403CF0E94EE0088231E
:100E400009F4FECE0E940000FBCE2092BC005CCFD5
:100E50008091390290913A02A0913B02B0913C02FC
:100E6000892B8A2B8B2B09F453CF0E94DD01209113
:100E7000390230913A0240913B0250913C02641990
:100E8000750986099709261737074807590708F093
:100E90003FCF75CF80E078CF82E076CF83E074CF0C
:100EA000843009F08DCF85E691E00E94F102103187
:100EB00020F48FE591E00E94F10240E1C701B60104
:100EC0000E94FE0284E291E00E94F10279CFA1E249
:100ED0001A2EAA1BBB1BFD010DC0AA1FBB1FEE1FB4
:100EE000FF1FA217B307E407F50720F0A21BB30BFF
:100EF000E40BF50B661F771F881F991F1A9469F77B
:100F000060957095809590959B01AC01BD01CF01D6
:100F10000895EE0FFF1F0590F491E02D0994F894C9
:100F2000FFCF0000000024018400B1007101E20045
:100F3000C000D40000000000BF029202EE0268026E
:100F40008B02780269020D0A000A4932432053637A
:100F5000616E6E6572005363616E6E696E672E2EF0
:100F60002E004932432064657669636520666F759B
:100F70006E642061742061646472657373203078DC
:100F800000300020202100556E6B6E6F776E20655B
:100F900072726F7220617420616464726573732071
:100FA0003078004E6F20493243206465766963656E
:100FB0007320666F756E640A00646F6E650A0000C8
:107800000C94343C0C94513C0C94513C0C94513CE1
:107810000C94513C0C94513C0C94513C0C94513CB4
:107820000C94513C0C94513C0C94513C0C94513CA4
:107830000C94513C0C94513C0C94513C0C94513C94
:107840000C94513C0C94513C0C94513C0C94513C84
:107850000C94513C0C94513C0C94513C0C94513C74
:107860000C94513C0C94513C11241FBECFEFD8E036
:10787000DEBFCDBF11E0A0E0B1E0ECE9FFE702C060
:1078800005900D92A230B107D9F712E0A2E0B1E065
:1078900001C01D92AD30B107E1F70E942D3D0C945F
:1078A000CC3F0C94003C982F959595959595959582
:1078B000905D8F708A307CF0282F295A8091C0000B
:1078C00085FFFCCF9093C6008091C00085FFFCCF60
:1078D0002093C6000895282F205DF0CF982F809127
:1078E000C00085FFFCCF9093C6000895EF92FF92F1
:1078F0000F931F93EE24FF2487018091C00087FD22
:1079000017C00894E11CF11C011D111D81E4E8164B
:1079100082E4F8068FE0080780E0180770F3E09132
:107920000401F091050109958091C00087FFE9CF1E
:107930008091C6001F910F91FF90EF9008950E94D3
:10794000763C982F8091C00085FFFCCF9093C600B5
:1079500091362CF490330CF09053892F089597555D
:10796000892F08951F930E949F3C182F0E949F3CCF
:107970001295107F810F1F9108951F93182F882350
:1079800021F00E94763C1150E1F71F9108951F935A
:10799000182F0E94763C803249F0809103018F5F5E
:1079A000809303018530C1F01F9108958091C0003C
:1079B00085FFFCCF84E18093C6008091C00085FFE5
:1079C000FCCF1093C6008091C00085FFFCCF80E102
:1079D0008093C6001F910895E0910401F091050184
:1079E00009951F9108950E94763C803241F0809164
:1079F00003018F5F80930301853081F008958091AA
:107A0000C00085FFFCCF84E18093C6008091C00058
:107A100085FFFCCF80E18093C6000895E0910401CA
:107A2000F09105010995089540E951E08823A1F0FE
:107A30002D9A28EE33E0FA013197F1F721503040CA
:107A4000D1F72D9828EE33E0FA013197F1F7215064
:107A50003040D1F7815061F708953F924F925F9285
:107A60006F927F928F929F92AF92BF92CF92DF924E
:107A7000EF92FF920F931F93CF93DF93000080E16B
:107A80008093C4001092C50088E18093C10086E015
:107A90008093C2005098589A259A81E00E94143D24
:107AA00024E1F22E9EE1E92E85E9D82E0FE0C02ECA
:107AB00010E1B12EAA24A394B1E49B2EA6E58A2E50
:107AC000F2E57F2EE0E26E2E79E4572E63E5462E36
:107AD00050E5352E0E94763C8033B1F18133B9F107
:107AE000803409F46FC0813409F476C0823409F41B
:107AF00085C0853409F488C0803531F1823521F1A3
:107B0000813511F1853509F485C0863509F48DC0BC
:107B1000843609F496C0843709F403C1853709F423
:107B200072C1863709F466C0809103018F5F80932C
:107B30000301853079F6E0910401F0910501099582
:107B40000E94763C803351F60E94F33CC3CF0E94E2
:107B5000763C803249F78091C00085FFFCCFF092DF
:107B6000C6008091C00085FFFCCF9092C600809136
:107B7000C00085FFFCCF8092C6008091C00085FFC9
:107B8000FCCF7092C6008091C00085FFFCCF609250
:107B9000C6008091C00085FFFCCF5092C600809146
:107BA000C00085FFFCCF4092C6008091C00085FFD9
:107BB000FCCF3092C6008091C00085FFFCCFB09210
:107BC000C60088CF0E94763C863808F4BDCF0E945C
:107BD000763C0E94F33C7ECF0E94763C803809F4CC
:107BE0009CC0813809F40BC1823809F43CC1883942
:107BF00009F48FC080E00E94C73C6CCF84E10E94F2
:107C0000BD3C0E94F33C66CF85E00E94BD3C0E94D3
:107C1000F33C60CF0E94763C809306010E94763C44
:107C2000809307010E94F33C55CF0E94763C80333D
:107C300009F41DC183E00E94BD3C80E00E94C73C66
:107C400049CF0E94763C809309020E94763C809343
:107C5000080280910C028E7F80930C020E94763C79
:107C6000853409F415C18091080290910902892B8D
:107C700089F000E010E00E94763CF801E85FFE4FDA
:107C800080830F5F1F4F80910802909109020817AF
:107C9000190788F30E94763C803209F045CF809125
:107CA0000C0280FF01C16091060170910701660F0F
:107CB000771F7093070160930601A0910802B091AD
:107CC00009021097C9F0E8E0F1E09B01AD014E0F09
:107CD0005F1FF999FECF32BD21BD819180BDFA9A17
:107CE000F99A2F5F3F4FE417F50799F76A0F7B1F4B
:107CF00070930701609306018091C00085FFFCCF5F
:107D0000F092C6008091C00085FFFCCFB092C60003
:107D1000E1CE83E00E94C73CDDCE82E00E94C73CFA
:107D2000D9CE0E94763C809309020E94763C8093D3
:107D300008028091060190910701880F991F909386
:107D40000701809306010E94763C853409F4A6C0A1
:107D500080910C028E7F80930C020E94763C8032D0
:107D600009F0B8CE8091C00085FFFCCFF092C6002C
:107D7000609108027091090261157105B9F140E046
:107D800050E080910C02A82FA170B82FB27011C0E2
:107D9000BB2309F45CC0E0910601F0910701319624
:107DA000F0930701E09306014F5F5F4F46175707B7
:107DB000E8F4AA2369F3F999FECF209106013091E6
:107DC000070132BD21BDF89A90B58091C00085FFB2
:107DD000FCCF9093C6002F5F3F4F30930701209355
:107DE00006014F5F5F4F4617570718F38091C00099
:107DF00085FDE5CE8091C00085FFF8CFE0CE81E023
:107E00000E94C73C67CE0E94763C803209F08CCE3F
:107E10008091C00085FFFCCFF092C6008091C00029
:107E200085FFFCCFE092C6008091C00085FFFCCFAB
:107E3000D092C6008091C00085FFFCCFC092C600E2
:107E40008091C00085FFFCCFB092C60043CEE09188
:107E50000601F091070194918091C00085FFFCCF4D
:107E60009093C6009CCF80E10E94C73C33CE0E9415
:107E7000763C0E94763C182F0E94763C112309F430
:107E800083C0113009F484C08FE00E94C73C22CE29
:107E900080910C02816080930C02E5CE80910C02EF
:107EA000816080930C0259CF809107018823880F4D
:107EB000880B8A2180930B02809106019091070123
:107EC000880F991F90930701809306018091080203
:107ED00080FF09C080910802909109020196909359
:107EE000090280930802F894F999FECF1127E091D6
:107EF0000601F0910701C8E0D1E08091080290915D
:107F00000902103091F40091570001700130D9F34B
:107F100003E000935700E89500915700017001308D
:107F2000D9F301E100935700E89509901990009169
:107F3000570001700130D9F301E000935700E89534
:107F40001395103498F011270091570001700130FB
:107F5000D9F305E000935700E895009157000170B0
:107F60000130D9F301E100935700E895329602976A
:107F700009F0C7CF103011F00296E5CF112480919F
:107F8000C00085FFB9CEBCCE8EE10E94C73CA2CD19
:0E7F900085E90E94C73C9ECDF894FFCF80008B
:00000001FF
